:020000023000CC
:1000000000000120B5020300DD020300FD1B030018
:10001000E1020300E3020300E50203000000000028
:10002000000000000000000000000000E7020300E4
:10003000E902030000000000EB020300ED020300F0
:10004000EF020300EF020300A1310300EF020300FF
:10005000EF020300EF020300592C0300EF0203003C
:10006000EF020300EF020300EF020300EF020300C0
:10007000EF020300EF020300EF020300EF020300B0
:10008000EF02030061150300EF020300EF0203001B
:1000900001160300EF020300B1480300EF02030062
:1000A000EF020300EF020300EF020300EF02030080
:1000B000EF020300EF020300000000000000000058
:1000C000EF020300EF020300EF020300EF02030060
:1000D000EF020300EF020300EF0203000000000044
:1000E0000000000000000000000000000000000010
:1000F0000000000000000000000000000000000000
:1001000000000000000000000000000000000000EF
:1001100000000000000000000000000000000000DF
:1001200000000000000000000000000000000000CF
:1001300000000000000000000000000000000000BF
:1001400000000000000000000000000000000000AF
:10015000000000000000000000000000000000009F
:10016000000000000000000000000000000000008F
:10017000000000000000000000000000000000007F
:10018000000000000000000000000000000000006F
:10019000000000000000000000000000000000005F
:1001A000000000000000000000000000000000004F
:1001B000000000000000000000000000000000003F
:1001C000000000000000000000000000000000002F
:1001D000000000000000000000000000000000001F
:1001E000000000000000000000000000000000000F
:1001F00000000000000000000000000000000000FF
:1002000010B5054C237833B9044B13B10448AFF350
:1002100000800123237010BD502A00200000000040
:10022000745C030008B5034B1BB103490348AFF3EB
:10023000008008BD00000000542A0020745C030008
:10024000154B002B08BF134B9D46A3F5803A0021A8
:100250008B460F461348144A121A04F0FEFB0F4B4C
:10026000002B00D098470E4B002B00D09847002061
:10027000002104000D000D48002802D00C48AFF307
:10028000008004F09BFB2000290004F067F804F0D4
:1002900081FB00BF000008000000012000000000FA
:1002A00000000000502A00208033002000000000E1
:1002B000000000000649074A074B9B1A03DD043B78
:1002C000C858D050FBDC04F07DF8FFF7B9FF000000
:1002D000FC5C030038280020502A0020FEE7FEE7DF
:1002E000FEE7FEE7FEE7FEE7FEE7FEE7FEE7FEE7E6
:1002F000F0B595B0002415460F4608461E4602F09C
:100300008DF9384623460895082205A91A9D0996B5
:100310000D950A948DF82C400C9402F0D9F99DF8B3
:1003200014308DF81140DDE9061003F00302012AB4
:10033000CDE9020127D0022A04D0384602F072F932
:1003400015B0F0BDBDF81650C3F3C2038DF81030E0
:10035000AD090826082D2C4628BF0824334622461E
:100360000EA9384602F0B4F92D1B214608AB02AAAB
:100370000EA8264400F07EFE002DEBD1384602F098
:1003800051F915B0F0BDBDF81460059DC6F3831694
:10039000C3F3C204B2000EA9384608238DF81040FA
:1003A000C5F3952502F094F908AB324628460EA90C
:1003B000009302AB00F0B8FD384602F033F915B0F7
:1003C000F0BD00BF014B01221A707047B02A002017
:1003D000704700BF00B583B0044B0093044A40232C
:1003E000FFF786FF03B05DF804FB00BFF5030300D1
:1003F000702A002038B50E480E4D03780E4CEB5C89
:100400000025D2B2257053B90C3003F00FF958B95A
:100410000A4B1B7813B12378002BFCD038BD043075
:1004200003F03CFB0028F3D001F052F8F0E700BFE6
:10043000382800207C330020B02A00206C2A0020BD
:1004400070B51348134A0378D35C88B0DBB90C301D
:1004500003F086F8104D0FCD6C460FC495E80F00E1
:1004600008AD062645F8206D84E80F0029460022D5
:10047000074802F019FA08B101F02AF8074B0022E8
:100480001A7008B070BD043003F0A0FAE2E700BFB4
:10049000382800207C330020B04A03006C2A00205A
:1004A00070B50D4D0FCD88B06C460FC495E80F00A8
:1004B00008AD062645F8206D84E80F002946074A56
:1004C000074802F0F1F908B101F002F8054B0122EA
:1004D0001A7008B070BD00BFB04A0300C503030026
:1004E000382800206C2A002008B5FFF7D9FF042126
:1004F000034800F0CFFC034B01225A7108BD00BF36
:10050000D05C03004C280020F0B5324C85B004F5D7
:10051000836001F043FC04F2144001F03FFCD4E995
:10052000013703EA0702D01C04EB800114F8200015
:1005300010F0040044D003F1020C0E7806F003061C
:10054000012E654635D0022E02F1030621D004EBC0
:1005500086010028F1D104EB82020133D2680192B6
:100560003B4004EB830302F00302012ADE6829D03A
:10057000022A23D1BDF806309B090333360C05EB64
:100580009305154801F016FC00B16560304605B0D2
:10059000F0BD4B880CEB931307EA0302D11C03F167
:1005A000020C14F82100654604EB810100F0040000
:1005B000CFE70B88C3F383136344EDE70026E0E73E
:1005C0009D1CC8E7BDF80430C3F38313360C1D44EB
:1005D000D7E700BF842B0020982F00200B4B0C483E
:1005E00010B50022FF21C3F818249960C3E9002246
:1005F000C3F8142483F8202401F0CCFF044610B97A
:10060000044802F0C3F8204610BD00BF842B002030
:10061000E05C0300F04A030021B9124B03EBC00079
:1006200000687047104A0F49521AD20815D030B4EA
:100630000E4D2B88834212D0002303E035F823406F
:10064000844205D001339A42F8D1002030BC704773
:1006500001EBC300006830BC704710467047084685
:10066000F8E700BF805C0300C85C03004C2A002050
:10067000094B013903EBC00003290BD8DFE801F077
:1006800002080604022070474079704700797047DD
:100690000420704700207047805C03002DE9F04380
:1006A00083B002AB002203F8012DDFF8DC9007468F
:1006B00018468846D9F8084001F062FAD9E90132B3
:1006C000D9F80060134401339B1B012B58D809F261
:1006D0001C450121284601F049FBFFF715FF0146A3
:1006E000284601F043FBD9E90132D9F80010134440
:1006F00001335B1A012BECD90A4003320523023186
:100700009DF8070049F82230C9F8001001F05EFAA0
:1007100000211C4801F020FB80F31000731C2340D3
:1007200009EB830300043440033440EA1740D860E7
:1007300019F8243067F3C50309F8243039F8243058
:100740006FF3891329F8243059F8242068F39F2285
:100750001346012161F301036FF3820349F824205A
:1007600009F8243099F820341BB906E000F00EF89F
:1007700018B1D9E900329A42F8D103B0BDE8F0834C
:100780003146B9E7A02F0020842B00202DE9F04747
:10079000934C002384B0C4F81834BFF34F8FD4E9CE
:1007A000015605EA0602D31C04EB830114F823303A
:1007B000580719D527680B7803F00303012B43D0A2
:1007C000022B03D14B88023505EB931506EA05028F
:1007D000D4F81804D31C04EB830128B9AF4239D9EB
:1007E00014F823305B07E6D404EB82026B1CD2685A
:1007F0000192334004EB830302F00302DB680293AF
:10080000022A05F1020700F08D80012A26D0D4F8D3
:1008100010543DB12B6828469B689847EB681D68CB
:10082000002DF7D16F48704B7049C01AC008000402
:1008300040F00200FFF732FFD4E90030C01A18BFC1
:10084000012004B0BDE8F0870B880235C3F38313A1
:100850001D44BBE7676004B0BDE8F087BDF8042025
:100860006348C2F38313062B28BF062363F3891260
:1008700002339900ADF8042001F08EFE8046002876
:10088000C5D001F0CBFE0023082201A9404601F0AB
:10089000EBFEBDF8043013F4707F00F09F806FF022
:1008A000010AAAEB050A082506EA070103312B46CF
:1008B000042204EB8101404601F0D6FEBDF804306D
:1008C00007F101090AEB0902C3F3831393424F4670
:1008D00005F10405E8D8D4F81834002B68D1D4F811
:1008E000105465B1EB685A7928464146002A5BD01E
:1008F0002B681B689847EB681D68002DF2D14046B5
:1009000001F090FE04A8002300F80D3D01F038F935
:10091000D4F818340BB9C4F804909DF8030001F022
:1009200055F989E7BDF8063031484FEA93194D462D
:10093000502D28BF502565F38F1305F10801ADF840
:10094000063001F029FE804600283FF460AF26EA19
:10095000070A0AF1010A01F061FE4FEA8A0A002340
:10096000082201A9404601F07FFE55452BD9EBB284
:10097000BAF1000F20D006EA0701A3EB0A03033106
:1009800004EB8101DDB252460823404601F06CFEC3
:100990002A460AF108031749404601F065FE09F1AD
:1009A000030907EB990996E71D68002D9AD1A6E780
:1009B000404601F037FE3FE72A4608230D494046EE
:1009C00001F052FEEBE706EA0701033104EB810177
:1009D0002A460823404601F047FEE0E7B9467AE799
:1009E000842B0020A05C0300805C0300FC4A030011
:1009F000E05C0300902B00202DE9F04782B002ABB1
:100A0000002403F8014DDFF8ECA007461846914694
:100A10008846DAF8084001F0B3F8DAE90132DAF88A
:100A20000060134401339B1B022B5ED80AF21C4565
:100A30000121284601F09AF9FFF766FD0146284694
:100A400001F094F9DAE90132DAF8001013440133C5
:100A50005B1A022BECD90A400332033145239DF87F
:100A600007004AF82230CAF8001001F0AFF8B31CB2
:100A700023400AEB830300211D48C3F80C9001F0CA
:100A80006BF980F31000731C23400AEB830300040E
:100A90003440033440EA1740D8601AF8243067F332
:100AA000C5030AF824303AF82430012161F3891390
:100AB0002AF824305AF8242068F39F22134661F361
:100AC00001036FF382034AF824200AF824309AF8CD
:100AD00020341BB906E0FFF759FE18B1DAE90032FD
:100AE0009A42F8D102B0BDE8F0873146B3E700BFC3
:100AF000A02F0020842B00202DE9F04F83B002AE00
:100B0000002406F8014D3E4C8046304693469A46F6
:100B1000A568894601F034F8D4E901322768134406
:100B20000133DB1B042B69D804F21C46012130463B
:100B300001F01CF9FFF7E8FC0146304601F016F918
:100B4000D4E901322168134401335B1A042BEDD937
:100B50000A400332C52344F8223005319DF80700CE
:100B6000216001F033F8B81CFA1C28402A403B1DD4
:100B70002B4004EB800004EB820204EB8303C0F8FB
:100B80000CB00021C2F80CA01E480C9ADA6001F0EB
:100B9000E3F880F310007B1C2B4004EB830300047C
:100BA0003D40033540EA1840D86014F8253068F31A
:100BB000C50304F8253034F82530032262F3891385
:100BC00024F8253054F8252069F39F22134601218B
:100BD00061F301036FF3820344F8252004F8253004
:100BE00094F820341BB906E0FFF7D0FD18B1D4E922
:100BF00000329A42F8D103B0BDE8F08F3946A7E73A
:100C0000842B0020A02F00202DE9F04F87B006AEE6
:100C1000002406F8114D454C109F0497CDE902239E
:100C2000804699463046119B05939246A5688B46AF
:100C300000F0A6FFD4E90132276813440133DB1B1F
:100C4000052B70D804F21C460121304601F08EF8C5
:100C5000FFF75AFC0146304601F088F8D4E901322A
:100C60002168134401335B1A052BEDD90A40033286
:100C700040F2051344F8223006319DF80700216048
:100C8000FE1C00F0A3FFB91C29402E403A1D2A404B
:100C900004EB810104EB86067B1D2B4004EB8202F2
:100CA000C1F80CA004EB8303C6F80C90109ED6602C
:100CB0000021119A1E48DA6001F04EF880F310000E
:100CC0007B1C2B4004EB830300043D40033540EACA
:100CD0001840D86014F8253068F3C50304F82530AF
:100CE00034F82530042262F3891324F8253054F8AF
:100CF00025206BF39F221346012161F301036FF35B
:100D0000820344F8252004F8253094F820341BB9D8
:100D100006E0FFF73BFD18B1D4E900329A42F8D162
:100D200007B0BDE8F08F3946A0E700BF842B002054
:100D3000A02F00202DE9F04F85B004AC002304F86B
:100D4000013DDFF834B101918246204602F10308EB
:100D50009146DBF8084000F013FFDBE90121DBF8E6
:100D600000700A444FEA98080132D21B08F10206CB
:100D700096427AD90BF21C450121284600F0F6FF75
:100D8000FFF7C2FB0146284600F0F0FFDBE9012136
:100D9000DBF800000A440132121A9642ECD80140F6
:100DA00003310622064468F39F529DF80F004BF86A
:100DB0002120CBF8006000F009FFDBF80850B81CD8
:100DC000204001352D1AAD000330A9450BEB800002
:100DD0003DD801994A4603F035FE0021244800F031
:100DE000BBFF80F310007A1C22404FEA1A410BEB44
:100DF00082023C40033441EA0040D0601BF82420CA
:100E00006AF3C5020BF824203BF824206FF38F12FD
:100E10002BF824200BEB84020220518869F38F11F8
:100E200051801BF8242060F301026FF382020BF85B
:100E300024209BF820241AB906E0FFF7A7FC18B17C
:100E4000DBE900219142F8D105B0BDE8F08F019EA9
:100E50002A46314603F0F6FD33462B441946A9EBEA
:100E60000502044803F0EEFDB7E7384697E700BFF8
:100E7000A02F0020902B0020842B0020044BD3E9CE
:100E800000239A4201D0FFF781BC0020704700BFC9
:100E9000842B002030B4184DD5F8104400215CB1EB
:100EA000E3681A798A4204D116E0DB681A798A422B
:100EB00012D01B68002BF8D1C3681971D5F8103413
:100EC00093B1DA68C36812681A60D5F81034DB6829
:100ED000186030BC0846704701310A29DFD14FF055
:100EE000FF31084630BC7047C5F81004C268136073
:100EF000084630BC704700BF842B002038B5094B32
:100F0000D3F81044012583F820544CB1E3685D7197
:100F1000236820465B689847E3681C68002CF5D17D
:100F200038BD00BF842B00202DE9F04784B01D465A
:100F30000C9C002394F80C802373EB8881460E46AA
:100F40001746002B40D1297A05290ED06B7AA88844
:100F500073BB404B53F821A00021FFF75DFB5246C5
:100F600003463D49204600F09DFF062F09D8DFE8E3
:100F700007F0046A4249525D33004946204600F0BA
:100F800091FF2B7A052B05D06B7A5BB9334920464C
:100F900000F088FF204600F079FF84F80C8004B050
:100FA000BDE8F0872E4A2F49204600F07BFFEDE791
:100FB000FFF75EFB2C4B2B4953F82020204600F016
:100FC00071FF297AA888C4E7254A00922749284A50
:100FD000204600F067FFB6E7D6E90410D6E9002303
:100FE0000390D6E902070291CDE900074946204661
:100FF00000F058FFC5E74946D6E90023204600F037
:1010000051FFBEE7B168D6E900232046009149466A
:1010100000F048FFB5E7D6E90201D6E900230191C7
:1010200000904946204600F03DFFAAE7D6E903714B
:10103000B068D6E900230291CDE900074946204671
:1010400000F030FF9DE732684946204600F02AFF55
:1010500097E700BF884B0300784B0300844B0300E5
:101060006C4B0300744B0300144B0300544B030000
:101070004C4B0300082900D970472DE9F04F1D465D
:10108000904600232A7B2B7385B0B8F80630039274
:1010900007460E46002B7BD198F80810052911D081
:1010A00098F80930B8F80400002B63D13C4B53F892
:1010B00021400021FFF7B0FA22460346394928466D
:1010C00000F0F0FEDFF8FCB0DFF8FC90002405E053
:1010D0003A5D013400F0E6FE082C09D0A6424946EC
:1010E0002846F5D85946013400F0DCFE082CF5D12D
:1010F0002D49DFF8D8B0DFF8D890284600F0D2FEAE
:1011000000240CE017F804A0BAF17E0F23D92E2298
:1011100049462846013400F0C5FE082C08D0A642F6
:10112000F0D859462846013400F0BCFE082CF6D110
:1011300098F80830052B02D098F80930A3B91B495C
:10114000284600F0AFFE284600F0A0FE039B2B735C
:1011500005B0BDE8F08F03F055FC5044524643788B
:1011600013F0970FD3D0D3E7114A1249284600F065
:1011700099FEE4E7FFF77CFA0F4B0E4953F8202065
:10118000284600F08FFE98F80810B8F804008DE7A4
:10119000074A009209490A4A284600F083FE7BE785
:1011A000884B0300784B0300444B0300844B03003F
:1011B0006C4B0300744B0300144B0300544B0300AF
:1011C0004C4B0300404B0300384B0300804B0300A3
:1011D000484B03004FF0A04310B44FF480204FF46D
:1011E00000344FF400214FF48012C3F80845C3F8CF
:1011F0000805C3F80815C3F808255DF8044B7047C7
:10120000434B1978002900F081802DE9F04F00242C
:1012100087B001258E4603E00134E4B2744560D204
:101220003C4B27B21E6816F837C0ACF1200205FA15
:1012300002F9394ACCF12003D2E9000125FA03F37F
:1012400049EA030905FA0CF800EA080201EA090371
:10125000134306EBC70BDFD021EA09032E4920EA2E
:1012600008026046C1E9002301F0ECFC16F837C023
:10127000ACF1200205FA02F201920199CCF12003AF
:10128000C6B225FA03F3ACF12002194306FA02F3C1
:101290000393224B0191D3E90023CDE9042305FAFE
:1012A0000CF30093CCF12001039B26FA01F10B43D0
:1012B000039306FA0CF30293DDE90467DDE90023EA
:1012C00016401F4032463B46DDE90267BB4208BF7D
:1012D000B24209D00E4B013493F800E0E4B27445F9
:1012E0009ED307B0BDE8F08F9BF80110DBF8043007
:1012F000A1F10101B1FA81F14909091AB1FA81F1AB
:101300004909002BE6D060469847E3E7704700BFE5
:1013100040300020783000207030002068300020FD
:101320002DE9F84F0646244800F0F0FBD8B9234FCA
:101330000123A6F1200103FA01FBC6F12002D7E93F
:10134000000123FA02F24BEA020B03FA06FA00EA62
:101350000A0201EA0B03134307D020EA0A0421EA38
:101360000B05C7E90045BDE8F88F304601F06AFC7F
:10137000134ED6E90089C8B148EA0A0349EA0B04CA
:101380009846A146D7E900234BEA03050D4B0A48CE
:1013900019684AEA02044B464246C6E90023C7E9F7
:1013A00000450022BDE8F84F00F05ABB28EA0A08C1
:1013B00029EA0B09E6E700BF483000207030002022
:1013C0006830002044300020042A36D92DE9F0414D
:1013D00082B00E460546144601F0EAFA002836D0DF
:1013E0001D491E4A1E4B0D601E481F491C60167089
:1013F00000230022741EC0E90023C1E90023E4B2E7
:10140000EEB105EBC404194F083D4FF00008032668
:1014100001E0AC4213D0A37820788DF806803A46DC
:1014200001A98DF804608DF8053001F0CBFA083C75
:101430000028EED002B0BDE8F081072070470C4ACA
:101440000C48002100F0FAFA02B0BDE8F08101F08A
:101450006BFA0028C4D0EDE778300020403000203F
:101460004430002068300020703000202113030039
:1014700001120300EC4B030070B5084D2B785BB1F3
:10148000074E00243368012113F8340001F078FB83
:101490002B780134A342F5D8002070BD40300020E5
:1014A0007830002010B5094B1B6803EBC00413F81B
:1014B000300001F0C7FB6378A3F10103B3FA83F3B3
:1014C0005B09181AB0FA80F0400910BD783000208E
:1014D00000B585B000230390194601AA44F201002B
:1014E000CDE9013300F004F805B05DF804FB00BF5E
:1014F00010B572B6FFF702FDFFF7C0FC0028FBD164
:10150000104B114C1149E41AE408240444F0010082
:10151000FFF7C4F80E4B1B68DB0700D500BE44F094
:1015200002000C49FFF7BAF8BFF34F8F0A490B4B83
:10153000CA6802F4E0621343CB60BFF34F8F00BF71
:10154000FDE700BF805C0300A05C0300F04B0300DC
:10155000F0ED00E0FC4B030000ED00E00400FA05B4
:10156000F8B5204A204B0024C2F84041C2F844415B
:10157000C2F84841C2F84C41C2F80041C2F80441E7
:101580001B6833B31949D2F804550A68AD1A1A68B2
:1015900025F07F45AA4227460DD8197CDE69AD1A91
:1015A000144419B11F74D3E9052090471EB1334686
:1015B0001A68AA42F1D90E490E4A0B7812789A425B
:1015C00008D00D490D4A41F823404FF48013C2F86A
:1015D0000031F8BD531CDBB2022B08BF00230B7097
:1015E000EFE700BF001001409C310020983100203F
:1015F00095310020943100208C31002000E100E082
:101600002DE9F04F8C4A8D4913780978DFF8508224
:10161000994285B0D8F800A000F07B810133DBB29D
:10162000022B08BF002386481370864A076852F8C9
:1016300023107B1823F07F43002403605346264683
:101640002046A446ABB11A688A4200F26581DC6884
:10165000C3F800C0891A1044DA6934B13D1825F086
:101660007F45C3E90154DE611E4613460124002B69
:10167000E9D1002C40F07C8101230093724B734F21
:10168000DFF8E09143F00103019355464FF0000B62
:1016900046B3D6E901C13446F669694B6C481A680D
:1016A000ACEB020323F07F43834248D80B44236012
:1016B00000220121C4E90122E2612174002D5DD0E4
:1016C0002A689A424DD2284603E00A689A424FD2CD
:1016D0000846C1699B1A0029F7D12360E161C46102
:1016E000002ED6D178783978884264D00B4603EB47
:1016F00043034C1CBA7807EBC303E1B28A421A7960
:10170000397004BF00213970022A9C6844D0032A32
:1017100038D0012AE8D1227C002AE5D1D3F80CC0C8
:10172000C4F804C01969A1605869E06099F8000024
:101730009B69A3610028B0D062609446ADE7A2EB3C
:101740000C0222F07F428A4202D28B1A2360AFE75A
:1017500000230122C4E90033A360E36122746DB168
:101760002A68C8F80040D31A2B60E56125468FE748
:10177000D21A0A602360E161C461B1E7C8F8004091
:10178000254685E7002DAFD000232B74ED69002D91
:10179000FBD1C8F80050A5E74DB1AC422B4603D1B0
:1017A000E4E094422FD01346DA69002AF9D10023ED
:1017B000237488429AD1BBF1000F01D1554553D013
:1017C000002D56D1234E244A1F4C4FF480334FF442
:1017D00000310127C2F880103C43C6F848334FF46B
:1017E0003C60C6F808337760A047154BB7604FF4EC
:1017F0003C601D60A047194B1D70002389F8003024
:1018000005B0BDE8F08FA34200F09180E069216847
:10181000D861002800F086802A4603680B440360E4
:10182000AA424FF000033978787823741CBF15461C
:101830004FF0010BBDE700BF94310020953100202F
:10184000983100208C310020104C03007C300020A7
:10185000FEFF7F000010014000E100E08931002020
:101860009C31002088310020009B002BC5D0002D2A
:10187000A8D0434B434A1C68D2F80465424FD5F8C0
:1018800000A03978331B23F07F43DD1CB9B93F49F1
:101890003F4B4FF48030C2F844034FF00108C2F8C8
:1018A00004034FF40030C1F8800143F001030860E5
:1018B000C2F800804FF43C60984787F80080AA4542
:1018C0002CBF04EB0A0363192E4923F07F43C1F8B0
:1018D0004035D1F80425921B9B1B22F07F4223F058
:1018E0007F4303329A4288D9294BD1F80425C1F8A5
:1018F000402543F001034FF43C609847234B4FF4DD
:101900000032C3F80021002389F8003005B0BDE89B
:10191000F08F00260096B1E674BB521A1A600123BC
:101920000093ABE6002339787878237441E71946B1
:10193000EA69C8F8002092B9CDE90231114BDFF80D
:1019400040C001209860019B89F80000CCF800207D
:101950004FF43C609847DDE90231D8F80020C869AF
:101960000968D86100287FF458AF59E72946DFE7B6
:10197000C8F800309A467FE6C8F800309A46CCE7AF
:1019800098310020001001408931002000E100E082
:10199000104C03002DE9F8431F4D204E204FDFF877
:1019A00098804FF480334FF400324FF00109002447
:1019B000C6F8802047EA0907C5F848334FF43C6071
:1019C000C5F80833C5F80490B847C5F808904FF437
:1019D0003C60C8F80040B847124A134B13491C60DA
:1019E0001470134B134A0C700B2114701C809970E7
:1019F0004FF48012C023C6F8802186F81433326079
:101A0000C5F8084586F81133D5F80435C8F8003014
:101A10002046BDE8F88300BF0010014000E100E06F
:101A2000104C0300893100209C31002094310020AB
:101A30007C3000209531002098310020074B9B78A6
:101A40004BB132B128B10368187C20B959745A617E
:101A50007047072070470820704700BF7C30002087
:101A60002DE9F047264CA37882B0002B3CD000280B
:101A70003AD004293CD94369002B35D0814602A8CD
:101A800099F811300026012B00F8016D0CBF884633
:101A9000B04617468A4600F073F86378A17822783A
:101AA0009DF807005D1CEDB2A94208BF3546AA4269
:101AB00022D003EB430304EBC3030121114AC3F813
:101AC00008901971D2F804256570C3E9032AC3E9A7
:101AD000058700F07BF80C4B4FF480123046C3F8BA
:101AE000002102B0BDE8F087082002B0BDE8F08711
:101AF000072002B0BDE8F08700F068F80420F0E7A6
:101B00007C3000200010014000E100E0F0B51A4CEC
:101B1000A37883B043B338B343692BB3064602A816
:101B2000002500F8015D357400F02AF86278A77886
:101B300021789DF80700531CDBB29F4208BF2B465B
:101B4000994214D002EB420204EBC20202219660D9
:101B50001171637000F03AF8084B4FF48012284678
:101B6000C3F8002103B0F0BD082003B0F0BD00F0C1
:101B70002DF80420F9E700BF7C30002000E100E0F0
:101B800070B4EFF3108472B60D4B9A68AAB90D4980
:101B90000D4E01259D60D1F8805035401D60C1F883
:101BA0008060D1F884505D604FF0FF33C1F884301D
:101BB000027004B962B670BC704701230370F8E785
:101BC0007033002000E100E0FC06FFBD094B9A687D
:101BD0007AB170B910B4EFF3108172B6064A1C687E
:101BE00014605C685460986001B962B65DF8044B9B
:101BF000704770477033002000E100E01EF0040FD2
:101C00001CBFEFF309800AE0EFF308800549064A9C
:101C1000884201D8904202D88D464FF00000034B15
:101C2000184700000000012000E00020551C0300C0
:101C3000BFF34F8F0549064BCA6802F4E0621343B5
:101C4000CB60BFF34F8F00BFFDE700BF00ED00E0AA
:101C50000400FA052DE9F04782B08146FFF74EF9FE
:101C6000FFF70CF90028FBD12F4F304A304BBF1A39
:101C7000FF083F0447F001079D6AB9F1000F4DD0FE
:101C8000D9F818202B493846FEF7B6FED9E90210DC
:101C9000D9E90023CDE9001027493846FEF7B4FF03
:101CA000D9F81C10D9E90423384600912349FEF7DE
:101CB00023FF1F4BDB6A99072BD4DFF894A0DFF8D2
:101CC00094800024012606FA04F32B4207D05AF828
:101CD000243041461A4638460BB1FEF78DFE0134DA
:101CE0001A2CF0D12A060DD42B0405D5104B14491B
:101CF0009A6B3846FEF780FE4846FFF799FF02B020
:101D0000BDE8F0870A4B0F495A6B3846FEF774FE60
:101D1000EAE70D493846FEF7C1FCCEE70B493846E5
:101D2000FEF7BCFCC5E700BFA85C0300805C0300B5
:101D300000ED00E0184C0300304C0300684C030039
:101D4000344D0300144D0300C44C0300904C0300B9
:101D5000504D0300084D030050E8002F0B4640E8AB
:101D6000003C9CF0000FF7D11046704750E8003F50
:101D700003EB010240E8002C9CF0000FF6D1104666
:101D8000704700BF50E8003FA3EB010240E8002C81
:101D90009CF0000FF6D11046704700BF012350E8B9
:101DA000002F42EA030C40E800C191F0000FF6D189
:101DB00060467047002350E800CF0CEA030240E879
:101DC000002191F0000FF6D160467047B8B130B4F1
:101DD000D0E90112521A0468D2B2531E2160DBB25C
:101DE00042B101680A685C1E551C0D601370E3B2B5
:101DF000FF2BF6D103680020187130BC70470E200D
:101E0000704700BFF0B583B002AB002503F8015D59
:101E100004461846FFF7B4FED4E900311A688A4236
:101E200010D9511E19602168A3680F6812F8015C6F
:101E30000A79268AE068DB1BDBB29A4206FB0505BD
:101E400038BF0B719DF80700FFF7C0FE284603B0AE
:101E5000F0BD00BF30B583B002AB002203F8012D06
:101E6000054618460C46FFF78BFE2A681368591C76
:101E70001160E9682A8A641AB4FBF2F41C709DF8B8
:101E80000700FFF7A3FE03B030BD00BF826842B178
:101E900010B5044643690168006998470023A360B0
:101EA00010BD70470EB400B582B0039929B102AAE3
:101EB00004AB42F8043D00F08BF802B05DF804EB8F
:101EC00003B070472DE9F84F884690451746054600
:101ED0001E46DDE90AB175D343464FF00109B3FB55
:101EE000F7F39F4209F10109F9D9B14538BFB1466D
:101EF00011F0010AAA6802D1BBF1000F43D10124FD
:101F000002E0013E07FB04F4012EFAD8B8FBF4F11D
:101F10008F42F7D92D4E05E0B4FBF7F4A4B1B8FB1E
:101F2000F4F1AA68705C531CAB602B689854D5E937
:101F300001329A4204FB1188EED32846FFF7A6FF30
:101F4000B4FBF7F4002CEAD1BAF1000F15D0BBF1C5
:101F5000000F12D0CB4510D92024AB682A68591C39
:101F6000A960D454D5E901329A420BF1FF3B06D265
:101F7000BBF1000F01D0CB45EFD1BDE8F88F28466B
:101F8000FFF784FFF4E78B0717D42024CB45B6D99D
:101F90002B68511CA9609C54D5E901329A420BF17F
:101FA000FF3B05D2BBF1000FA9D0CB45F0D1A6E78E
:101FB0002846FFF76BFFAA68F4E7002E0CBF302419
:101FC0002024E3E74FF001098FE700BF9852030098
:101FD000002900F0F4812DE9F04F054685B09246C6
:101FE0000C460B78DFF8A8B501E0237893B10134F3
:101FF00083B1252B15D0AA682968501CA8608B5482
:10200000D5E901329A42F0D32846FFF73FFF237803
:10201000002BECD12B7B002B40F0148105B0BDE8E8
:10202000F08F2146002711F8012B2D2A00F0E180C6
:10203000302A00F0E2802B2A00F0D2802A2A00F019
:10204000E080A2F13006F3B2092B03D9B8E1A3F185
:1020500030060146084606EB860310F8012BA2F174
:102060003004092C02EB4303F1D92E2A00F0D5806D
:102070000023013101E011F8012B02F0FB00682878
:102080000C46F8D0253A532AAFD801A151F822F0D6
:1020900051220300EB1F0300EB1F0300EB1F0300A3
:1020A000EB1F0300EB1F0300EB1F0300EB1F0300FC
:1020B000EB1F0300EB1F0300EB1F0300EB1F0300EC
:1020C000EB1F0300EB1F0300EB1F0300EB1F0300DC
:1020D000EB1F0300EB1F0300EB1F0300EB1F0300CC
:1020E000EB1F0300EB1F0300EB1F0300EB1F0300BC
:1020F000EB1F0300EB1F0300EB1F0300EB1F0300AC
:10210000EB1F0300EB1F0300EB1F0300EB1F03009B
:10211000EB1F0300EB1F0300EB1F0300EB1F03008B
:10212000EB1F0300EB1F0300EB1F0300EB1F03007B
:10213000EB1F0300EB1F0300EB1F0300EB1F03006B
:10214000EB1F0300EB1F0300EB1F0300EB1F03005B
:10215000EB1F0300EB1F0300EB1F03006B220300C8
:10216000EB1F0300EB1F0300EB1F0300EB1F03003B
:10217000EB1F0300EB1F0300EB1F0300EB1F03002B
:10218000EB1F0300EB1F030085220300A7220300BF
:10219000EB1F0300EB1F0300EB1F0300EB1F03000B
:1021A000A7220300EB1F0300EB1F0300EB1F03003C
:1021B000EB1F0300EB1F0300EB1F0300F7220300DC
:1021C000EB1F0300EB1F03006B230300EB1F030057
:1021D000A5230300EB1F0300EB1F03006B2203008A
:1021E00047F004070C46214611F8012B2D2A7FF4F5
:1021F0001FAF47F001070C46F5E747F002070C4612
:10220000F1E7DAF800301A1DCAF8002062781E687B
:102210002E2A04F102007FF42BAF4A78A2F130039A
:10222000092B00F25081002303EB830302EB4303ED
:1022300010F8012FA2F130010929A3F13003F3D9DD
:10224000014616E7284605B0BDE8F04FFFF71EBE71
:10225000AB682A68591CA9604FF02501D154D5E913
:1022600001329A42FFF4C1AECEE6DAF80020111D29
:10227000CAF8001011682846CDE900671022FFF760
:1022800021FEB2E6DAF80020131DCAF80030AB6870
:1022900029681278581CA860CA54D5E901329A42BC
:1022A000FFF4A3AEB0E6DAF80020111DCAF8001062
:1022B000D2F8008088EAE872A2EBE872092A4FF0AF
:1022C000010107DDB148A0FB0202D208092A01F191
:1022D0000101F7DC994238BF1946894607F002022E
:1022E000002E71D12AB1002B00F04B81FA0700F1CA
:1022F0008D8000268AE0DAF80020131DCAF800302D
:10230000AB6829681768581C3022A860CA54D5E900
:102310000123934280F02C812A68581C7821A86000
:10232000D154D5E90123934280F01D810F2F03D9A9
:102330003A4612090F2AFCD84FF0805603E03609BE
:102340003FF453AEAB682968B7FBF6F2581CA8609F
:102350001BF80200C854D5E90131994206FB1277F7
:10236000EDD32846FFF792FDE9E7DAF800301A1DB1
:10237000CAF80020D3F80080FB077ED54746A7EBBC
:10238000080917F8013B002B5DD0AA682968501C8A
:10239000A8608B54D5E901329A42F0D32846FFF762
:1023A00075FDECE7DAF80020111DCAF8001011687D
:1023B0002846CDE900670A22FFF784FD15E670473D
:1023C00008460026214650E6B8F1000F01DB7807E9
:1023D00000D5013E02B1CBB1F90717D4002E88D049
:1023E000B14513D220220393A9682B68481CA8602A
:1023F0005A54D5E90131994206F1FF365DD2002EDB
:1024000000F0C180B145EFD1039B4E46B8F1000FFB
:10241000C0F296807A070AD5A9684A1CAA602A6881
:102420002B205054D5E90121914280F0968007F08D
:102430000302022A5FD0CDE9006741460A222846FE
:10244000FFF740FDD1E54E457FF6CFAD202705E0F3
:102450004E453FF4CAAD002E3FF4C7ADAB682A68C5
:10246000591CA960D754D5E901329A4206F1FF36CA
:10247000EED32846FFF70AFDEAE7B8F1000F24D0B3
:10248000404602F0F2FA0746BE4220D9FEB14FF0B4
:10249000200902E0BE421AD0CEB1AB682A68591CAE
:1024A000A96002F80390D5E901329A4206F1FF369D
:1024B000F0D32846FFF7EAFCECE728460292FFF744
:1024C000E5FC029A9BE70146D2E54746DCE708F1C6
:1024D000FF3818F8013F002B3FF487ADAA68296840
:1024E000501CA8608B54D5E901329A42F1D328469A
:1024F000FFF7CCFCEDE7002B9DD1002E3FD0B1457E
:1025000099D2029323464C46B1461E46AA682B68D0
:10251000501C4FF03001A8609954D5E901329A421D
:1025200009F1FF3908D2B9F1000F26D04C45EDD1A1
:102530003446029B4E467EE72846FFF7A7FCF2E7AB
:10254000A9684A1CAA602A682D205054D5E90121A7
:102550009142C8F10008FFF46AAF28460293FFF7E2
:1025600095FC029B63E72846FFF790FCAB68DDE62D
:102570002846FFF78BFCAB68CEE6029B344600266C
:1025800059E71E4642E7039BB3E600BFCDCCCCCC57
:1025900098520300FFF71ABC2DE9F041058ACE1CC2
:1025A000043D2E440746B6FBF5F6FFF72BFC78B347
:1025B000F6B24FF48073013E0446C5800760838005
:1025C00027D08046002509E06379AE4203F101037C
:1025D0006371C8F80000076080461AD03846FFF7DC
:1025E00011FC01350028EFD16679721E14D0234604
:1025F000013082421B68FBD11F684EB10025236861
:102600002146013538461C46FFF724FCAE42F6D180
:1026100000242046BDE8F0812768EFE7043001215F
:10262000FFF7A4BBF8B5012104460430FFF7AAFB6D
:10263000C0B200B1F8BD6679721E12D023460130D7
:1026400082421B68FBD11F68002EF3D0002523684F
:102650002146013538461C46FFF7FCFBAE42F6D159
:10266000F8BD2768F2E700BF2DE9F843C78846792F
:1026700007FB06F6043E02EB030C0446664503F135
:10268000040015468846B0FBF7F238BFF51A07FB81
:10269000120012B1013A2468FCD13E1AAE4228BFA2
:1026A0002E469DB14FF000090430AD1B2044324648
:1026B00008EB090102F0C6F9AF42B14424683E4676
:1026C0004FF0000028BF2E46002DEDD1BDE8F88365
:1026D0002DE9F843C7884679154607FB06F6043E00
:1026E00005EB030C1A1D664504468846B2FBF7F05D
:1026F00038BFF51A07FB102110B101382468FCD14E
:102700007E1AAE4228BF2E469DB14FF0000904311B
:102710002144AD1B324608EB090002F093F9AF42A9
:10272000B14424683E464FF0000128BF2E46002DDC
:10273000EDD1BDE8F88300BF41DF704700B583B03D
:1027400002A8002300F8013DFFF71AFAF1EE103A53
:1027500023F09F03E1EE103ABFF35F8F0A4B402254
:10276000C3F884219DF80700FFF730FA02F09AF8C9
:1027700028B920BF40BF20BF03B05DF804FBFFF7BE
:10278000DBFF03B05DF804FB00E100E0826800239A
:10279000936082681361826853618268D360826843
:1027A000536082681360704701600B6843604A6839
:1027B000934204BF00234360704700BF436843B1A6
:1027C000026891680B4443605268934204BF00233F
:1027D0004360704730B4184DA5F59472AB1ADB1006
:1027E00003EBD3735B1002EBC30152F83330984212
:1027F00028BF0C4605D311E052F8333098420CD272
:1028000021468B1ADB1003EBD3735B108A4202EB79
:10281000C304F1D3094830BC70470D46984204D92F
:1028200004F10802AA42D9D3F4E76068034B0028F8
:1028300008BF1846EFE700BFF0530300B45203008F
:1028400030B585B0047845688DF80040D0E9024085
:10285000064A074B039053F8213001958DF8084044
:1028600052F821106846984705B030BDA0310020CD
:10287000A431002030B585B0047845688DF800405B
:10288000D0E90240064A074B039053F821300195E6
:102890008DF8084052F821106846984705B030BDC1
:1028A000A0310020A4310020F0B51A4B06781A4D53
:1028B0000C6991F81DE045F826400746174803F8D3
:1028C00006E040F826200C4694460FCC89B06D46B1
:1028D0000FC594E80F0085E80F000496BEF1000FC5
:1028E0000BD0BCF1000F0E4A694607F1040008BF87
:1028F000002200F08FFF09B0F0BDBCF1000F094AC3
:10290000694607F10C0008BF002200F05FFD09B026
:10291000F0BD00BF7C330020A0310020A431002096
:10292000412803007528030030B51D4C94F8585019
:1029300083B095BB4FF0FF332946042204F15400C5
:10294000C4E90033C4E90233C4E90433C4E90633FB
:10295000C4E90833C4E90A33C4E90C33C4E90E33CB
:10296000C4E91033C4E91233236502F076F80D4A46
:102970000D4B0E491D60C02082F8060340201060F8
:102980001B68019301984FF000430122284684F808
:102990005820C1F8043303B030BD082003B030BD67
:1029A000A831002000E100E07C61004000600040B0
:1029B000034B93F85800003018BF0120704700BF48
:1029C000A8310020F0B56C4B1C1894F93050002D44
:1029D00068DA8E78C6F340069646002E5CD11D6AF2
:1029E000013500F0B58009240C2553F82470013717
:1029F0005BD004F1010C53F82C70013700F0B38068
:102A0000A71CAF4246D253F82720013200F0AD8018
:102A100004F1030CAC453DD253F82C70013700F0A3
:102A2000A28004F1040CAC4534D253F82C70013769
:102A300000F0998004F1050CAC452BD253F82C70B2
:102A4000013700F0908004F1060CAC4522D253F817
:102A50002C70013700F0878004F1070CAC4519D2C7
:102A600053F82C7001377ED004F1080CAC4511D21C
:102A700053F82C70013776D004F1090CAC4509D21B
:102A800053F82C7001376ED00A34AC4202D2DC6AA3
:102A9000013409D00420F0BD1D68013567D0012440
:102AA0000825A2E70820F0BD0B241F1865B243F8E3
:102AB00024E087F83050002E51D08A78540714D47F
:102AC000D6073BD44C784FF0A04600F5E072A40046
:102AD00046F82240294EC40800F0070C375D012259
:102AE00002FA0CF23A4332558A780C7812F002025C
:102AF00009D1083D2B44104693F8502042EA841433
:102B000083F85040F0BDAB0003F1804303F5C043B0
:102B10000202D3F8101521F4473121F44071C3F8B3
:102B200010152404D3F8101504F4403402F4F852BC
:102B300022430A43C3F810250020F0BD820002F1B1
:102B4000A042D2F8004724F00204C2F80047C1E7CF
:102B5000082684F83060C3F820E0354634461C442B
:102B600084F84800A9E764469FE73C469DE70025B6
:102B70001A6084F83050A0E7A8310020FC31002012
:102B800070B42E4D2E1883B096F93030072B1CDD13
:102B90002B4493F848309B09032B41D0012B14BFE1
:102BA0004FF440314FF40031800000F1A040D0F8E4
:102BB000002722F44032C0F80027D0F800370B433A
:102BC000C0F8003703B070BC7047DAB2072AF9D8F2
:102BD000980000F1804000F5C04003F14002D0F8B9
:102BE0001045920092B244F0010402F18042C0F814
:102BF000104502F5C04200200190019C10600029A0
:102C0000E0D096F9302055F82220002ADAD00122AF
:102C10000B4902FA03F3C1F8043303B070BC7047E8
:102C20004FF0A043D3F81035C34013F0010F0CBF91
:102C30004FF400314FF44031B6E700BFA831002017
:102C4000006000404FF0A043D3F8103523FA00F0A5
:102C500000F00100704700BF2DE9F04186B000236D
:102C6000A14A01931668012E00F054811E469F4B25
:102C70001A68012A00F05D819D4B1A68012A00F054
:102C80006A819C4B1A68012A00F077819A4B1A6876
:102C9000012A00F08481994B1A68012A00F0918181
:102CA000974B1A68012A00F09E81964B1A68012AF8
:102CB0000CD0954B1B68012B00F0A58116F0FF0F7F
:102CC00015D1002E30DB06B0BDE8F0818F4AD2F876
:102CD00004231706EDD500221A601A6804926033A7
:102CE000049A1B68012B46F0800600F08C81884F07
:102CF00000240125A30003F18043354203F5C043BE
:102D00004FEA45050BD0D3F8100557F82420D3F827
:102D10001015C0F30420C1F3014102B19047013402
:102D2000082CE7D1002ECEDA00224FF0FF33CDE998
:102D30000223774C012602AF94F950305D1C2CD051
:102D4000DBB223F0C00006AA4FEAD00C02EB0C0E57
:102D500003F007021EF80C1C06FA02F211421CD006
:102D60002518990995F9303054F82330002B00F0DC
:102D70009881032900F098814FEA800C0CF1A04C57
:102D80001EF8145CDCF800E71540CEF3014E40F06D
:102D90005C81BEF1030F00F0DE81002594F9513013
:102DA000581C2DD0DBB223F0C00006AA4FEAD00891
:102DB00002EB080E03F007011EF80C2C06FA01FCCA
:102DC00012EA0C0F1CD02218990992F9303054F8ED
:102DD0002330002B00F05B81032900F05B8182002F
:102DE00002F1A0421EF8148CD2F800E718EA0C0F8A
:102DF000CEF3014E40F03681BEF1030F00F0A68104
:102E000094F95230591C2DD0DBB223F0C00006AA31
:102E10004FEAD00802EB080E03F007011EF80C2C55
:102E200006FA01FC12EA0C0F1CD02218990992F93B
:102E3000303054F82330002B00F03C81032900F09F
:102E40003C81820002F1A0421EF8148CD2F800E707
:102E500018EA0C0FCEF3014E40F0E380BEF1030FF1
:102E600000F06E8194F953305A1C2DD0DBB223F060
:102E7000C00006AA4FEAD00802EB080E03F00701D3
:102E80001EF80C2C06FA01FC12EA0C0F1CD02218BA
:102E9000990992F9303054F82330002B00F0ED807E
:102EA000032900F0ED80820002F1A0421EF8148C8C
:102EB000D2F800E718EA0C0FCEF3014E40F0BC80C8
:102EC000BEF1030F00F00081002D3FF4FCAE4FF087
:102ED000A043019AD3F8103593423FF4F4AE029A1E
:102EE0000193039228E700BF0061004004610040A5
:102EF000086100400C610040106100401461004016
:102F0000186100401C6100407C610040006000408E
:102F1000A83100209A49D1F8041311F0010170D0B2
:102F2000136013680493049B964B1A68012A7FF47C
:102F3000A3AE934AD2F8042397077FF59DAE0022F3
:102F40001A601B680493049B8F4B1A68012A46F091
:102F500002067FF496AE8A4AD2F8042355077FF51D
:102F600090AE00221A601B680493049B874B1A687A
:102F7000012A46F004067FF489AE814AD2F8042380
:102F800014077FF583AE00221A601B680493049B2C
:102F90007F4B1A68012A46F008067FF47CAE784A17
:102FA000D2F80423D0067FF576AE00221A601B68A3
:102FB0000493049B774B1A68012A46F010067FF4AD
:102FC0006FAE6F4AD2F8042391067FF569AE0022F6
:102FD0001A601B680493049B6F4B1A68012A46F021
:102FE00020067FF462AE664AD2F8042352067FF5CB
:102FF0005CAE00221A601B680493049B46F04006F6
:1030000053E60E4633E6654B00221A601B680593B3
:103010004FF0A043059AD3F81035019346F00046CF
:103020004CE6BEF1020F7FF41DAF032963D0002BE5
:103030003FF418AF984715E7BEF1020F7FF444AF95
:10304000032969D0002B54D13EE7BEF1020F7FF473
:10305000A4AE032900F091800025002B3FF49EAE22
:1030600098479BE6BEF1020F7FF4CAAE032956D003
:10307000002B3FF4C5AE9847C2E603297FF424AF86
:1030800017F8082042EA0C0207F808200BE703298A
:103090007FF4B6AE17F8082042EA0C0207F80820C1
:1030A0009DE603297FF479AE17F80C50154307F815
:1030B0000C5061E603297FF4D5AE17F8082042EAE8
:1030C0000C0207F80820BCE60329BBD14FF4003EF0
:1030D000D2F800C72CF4403CC2F800C7D2F800C7B1
:1030E00001354CEA0E0CEDB2C2F800C7002B3FF4DC
:1030F000EEAE9847E8E64FF4403ED2F800C72CF415
:10310000403CC2F800C7D2F800C701354CEA0E0CAB
:10311000EDB2C2F800C78AE74FF4403ED8E74FF45B
:10312000403ED2F800C72CF4403CC2F800C7D2F8A9
:1031300000C701354CEA0E0CEDB2C2F800C797E7A4
:1031400003297FF474AF4FF4003ED6E703298FD1F3
:103150004FF4003EE5E703297FF47FAF4FF40035DD
:10316000DCF8002722F44032CCF80027DCF80027F6
:103170002A43CCF8002701256FE74FF44035EFE7ED
:103180000060004004610040086100400C610040A4
:103190001061004014610040186100407C610040F3
:1031A000014B1B68184700BF04320020104B9842A7
:1031B00001D00020704730B583B002A8002300F88A
:1031C000013D0D46FEF7DCFC0A4B1C7934B19DF83D
:1031D0000700FEF7FBFC112003B030BD01229DF873
:1031E00007001D601A71FEF7F1FC2046F4E700BFEE
:1031F0000020004004320020034B984203D1034BCF
:1032000000221A601A71704700200040043200202A
:1032100030B56C4AD2F8043399058BB066D5D2F834
:103220002431002B62D00023C2F82431D2F824319B
:1032300003934FF40171644B0398C2F8081393F899
:10324000291009B9012151605E4902228DF8182028
:10325000D1F88024C1F880249869D96809920022A5
:10326000CDE90710C3E90622D3E9001406A8A04758
:10327000544AD2F81C31BBB1534B186A5969884281
:1032800069D350480022C0F81C21D0F81C010190DD
:10329000019849B198688DF8182008915A610790F3
:1032A000D3E9001206A89047464AD2F84431DBB170
:1032B0000021454BC2F84411D2F8440193F829107B
:1032C0000090009809B1012111609A6962B1002251
:1032D000586AD9689A610122CDE907108DF8182043
:1032E00006A8D3E9001290470BB030BD354AD2F89A
:1032F00004335B07BCD5D2F80831002BB8D0324B71
:10330000996900293CD00021C2F80811D2F80811AF
:1033100004910499D868596AD2F8182542545A6A17
:10332000996901325A625A6A8A42A1D1DA691968E6
:10333000002A2ED0D8685D6A1C699A610790002225
:103340000120DC60DA615A628DF8180008955B682C
:1033500006A898478CE793F8280000F0FF0400289F
:103360008FD1C2F81C41D2F81C11029102999C68BD
:10337000186A196A205C01311962C2F81C0593E7CA
:10338000C2F80811D2F8080105900598D2F818255E
:10339000C9E793F8292012B90A4A01205060094A66
:1033A0004FF40170C2F80803586ADA6808900024E4
:1033B000012007928DF818005A689C6106A8904772
:1033C00056E700BF002000400C3200202DE9F041FC
:1033D0005E4F06792C2505FB067582B095F82A30DC
:1033E000002B40F087800D460446594900689046FE
:1033F000FFF7DCFE002879D12B68591C0CD0012284
:103400004FF0A04102FA03F3C1F808352B6803F529
:10341000E073032241F823206B685A1C06D003F5A1
:10342000E0734FF0A042002142F823102368AA69FC
:10343000C3F82425297D6B7D22680B43C2F86C35C7
:10344000D5E900122368C3F81425C3F80C152B7DA9
:10345000012B53D02C2303FB06F3FA18C2F8048087
:103460002A69FA50B8F1000F2DD022682B7F394D10
:103470000021C2F81C11D2F81C2100922268DDF84C
:1034800000C0C2F84411D2F8441122680191019998
:10349000C2F804532168090B4AB25B01002ADBB26F
:1034A0004EDB02F1604202F5614282F8003323688C
:1034B000294D1B0B5AB2520903F01F03012101FAD7
:1034C00003F345F822302C23246803FB0673002203
:1034D00004250121C4F8005583F82A10C3E9062207
:1034E00083F829205A6102B0BDE8F081112002B0B2
:1034F000BDE8F081082002B0BDE8F081AB68591C3E
:1035000006D003F5E0734FF0A042002142F82310EB
:10351000EB685A1C0DD001224FF0A04102FA03F3D0
:10352000C1F80835EB6803F5E073032241F8232066
:10353000EB682268A968C2F80835C2F8101589E757
:10354000064A01F00F010A441376B0E70C3200205E
:10355000113203008000020000E100E0FCEC00E01A
:10356000F8B52F4D047902682C2303FB0453002186
:103570005B68C2F8001583B103682A4AC3F80823C0
:103580000368294E1B0B5AB25209203203F01F0365
:10359000012101FA03F346F8223003684FF0FF32AD
:1035A000D3F80CC5D3F81475D3F80815D3F8106503
:1035B000C3F81425C3F80C2503689445C3F80825FF
:1035C000C3F8102506D00CF5E07C4FF0A043022292
:1035D00043F82C207B1C06D007F5E0774FF0A04382
:1035E000022243F82720721C06D006F5E0764FF041
:1035F000A043022243F826204B1C06D001F5E071BF
:103600004FF0A043022243F821200068FFF7F4FDA9
:103610002C2303FB0454002384F82A306360F8BD94
:103620000C3200208402020000E100E0F0B5314ECF
:1036300005792C2303FB056385B05C69002C53D10D
:103640001C62996083F828405A610268C2F81C41E4
:10365000D2F81C11026802910121029F9160026858
:10366000D3F808C0C2F81C41D2F81C11019101998D
:10367000D3F820E0196A5F681CF80EE00131196286
:10368000C2F81CE517B1204605B0F0BD1A6A5C69A6
:103690000168944203D819E093F828203ABBD1F886
:1036A0001C21002AF8D0C1F81C71D1F81C2103920A
:1036B000039AD3F820E01A6A1CF80EE001321A626D
:1036C000C1F81CE51A6AA242E9D30168D1F81C319D
:1036D000002BFBD00123CB6000202C2303FB0565CE
:1036E00000236B6105B0F0BD112005B0F0BD0F20C7
:1036F000F3E700BF0C320020F0B5444BD3F824218F
:1037000089B0002A52D00021C3F82411D3F8242113
:10371000029202228DF81020029AD3F880043C4ACB
:10372000C3F880040790D3F83C05D3680690C2E93B
:10373000061105931168536804A89847334BD3F8D2
:103740004421BAB10021324AC3F84411D3F84441AC
:1037500090690194019C68B1D3F83C35D068069318
:103760000123C2E9061105908DF8103004A8D2E9B2
:1037700000139847254BD3F82021AAB10021C3F8A4
:103780002011D3F82001224A00900098506958B1C6
:10379000D3F84C05936806908DF81010516105938D
:1037A00004A8D2E90013984709B0F0BDD3F810116E
:1037B0000029C3D0C3F81021D3F810111448039185
:1037C00003998169D3F83C458C42B7D1C569C76874
:1037D000D0E900168DB1D3F800C285612CF0200528
:1037E000C261C3F800520369C3600122CDE90574C8
:1037F0008DF8102004A8B047A0E701238561CDE92A
:1038000005748DF8103004A8B04797E700200040F9
:10381000383200202DE9F0430779674E4FEAC70898
:1038200008EB070306EB830385B093F82030002BE9
:1038300040F096800D460446604900689146FFF7C7
:10384000B5FC002840F088802B68591C0CD0012260
:103850004FF0A04102FA03F3C1F808352B6803F5D5
:10386000E073032241F823206B685A1C06D003F54D
:10387000E0734FF0A042002142F823102368AA69A8
:10388000C3F82425297D6A7D23680A43C3F86C2583
:10389000D5E900312268C2F80C35C2F814152B7D29
:1038A000012B61D008EB07029200B318C3F8049013
:1038B0002B69B350B9F1000F3DD021682B7F404DEB
:1038C0000022C1F81021D1F8101100912168DDF813
:1038D00000C0C1F82021D1F8201101912168DDF844
:1038E00004C0C1F82421D1F8241102912168DDF827
:1038F00008C0C1F84421D1F844112268039103990A
:10390000C2F804532168090B4AB25B01002ADBB2FA
:103910004CDB02F1604202F5614282F80033236819
:10392000284D1B0B5AB2520903F01F03012101FA63
:1039300003F345F822304744226806EB870600234C
:1039400001240821C2F8001586F82040C6E9063394
:10395000736105B0BDE8F083112005B0BDE8F083C8
:10396000082005B0BDE8F083AB68591C06D003F50C
:10397000E0734FF0A042002142F82310EB685A1C7C
:103980000DD001224FF0A04102FA03F3C1F808352F
:10399000EB6803F5E073032241F82320EB6822680B
:1039A000A968C2F80835C2F810157BE7064A01F08D
:1039B0000F010A441376B2E738320020F9360300CB
:1039C0001003020000E100E0FCEC00E0F8B506792D
:1039D0002F4C0268F500AB1904EB830300215B68F0
:1039E000C2F8001583B103682A4AC3F808230368A4
:1039F000294F1B0B5AB25209203203F01F03012139
:103A000001FA03F347F8223003684FF0FF32D3F88E
:103A10000CE5D3F814C5D3F80815D3F81075C3F81E
:103A20000C25C3F8142503689645C3F80825C3F888
:103A3000102506D00EF5E07E4FF0A043022243F899
:103A40002E20BCF1FF3F06D00CF5E07C4FF0A043E8
:103A5000022243F82C207A1C06D007F5E0774FF0BD
:103A6000A043022243F827204B1C06D001F5E07149
:103A70004FF0A043022243F82120354404EB850493
:103A80000068FFF7B9FB002384F820306360F8BDBD
:103A9000383200201003020000E100E001F0604332
:103AA000B3F1005F2CD1F0B40579244EEF007C19FE
:103AB00006EB840482B0636923BB6261A160026883
:103AC000C2F82031D2F820C10268CDF804C0DDF878
:103AD00004C0C2F85831D2F8582100920268DDF8CB
:103AE00000C0D4F814C0C2F84415C2F848C5026832
:103AF0000121916062684AB1184602B0F0BC70477B
:103B000010207047112002B0F0BC7047036800E03D
:103B10008AB9D3F82011D3F858210029F8D0002A07
:103B200014BF0F2000207B1906EB830300225A618B
:103B300002B0F0BC70470F20F5E700BF383200201C
:103B4000C2DF7047CDDF7047D1DF7047D3DF7047EA
:103B500010B504468378827A41780078FFF7F0FF49
:103B600000B110BD23796279E1882078FFF7EEFF7C
:103B70000028F6D1E1782078FFF7E4FF0028F0D1A3
:103B8000A378DB07EDD421890029EAD02078BDE8AD
:103B90001040FFF7D9BF00BF70B50120FDF782FCD0
:103BA00004460020FDF77EFC8CB14C4D2A68511C68
:103BB00020BBC72965D82960494B00221A60002222
:103BC000A4214848FDF74CFF002831D170BD0028E2
:103BD00037D0434A1368591CC7292DD94249434C51
:103BE00008782468C73B1360002869D101230420AA
:103BF0000B70A0473E4B00221A701EE0384C236821
:103C0000C72903F1010323602BD82960C72BD6D91C
:103C1000354A364811780568C83B2360002955D1DC
:103C2000012304201370A847314B00221A70C6E705
:103C3000BDE87040FDF74CBC1160284B00221A60B3
:103C4000BDE7294B1A78002A31D0254C1870294B32
:103C50001A781AB30022214D1A70002323602B60BA
:103C600070BD244B214819780668C73A2A6051BBB9
:103C7000012203201A70B0471F4A236800211170E7
:103C8000C4E71C4B194819780468C73A2A6001B385
:103C90000520A047184B00221A708DE70F4D2B68A6
:103CA000772BDAD9114B01201B689847D5E70C4CCC
:103CB0002368772BCBD90D4B02201B689847C6E7AA
:103CC0000620A04796E70520B047D5E70620A8477D
:103CD000AAE7012203201A70A047DBE76032002028
:103CE000643200206C320020693200208C320020C7
:103CF0005C320020683200205D32002010B51F4B7E
:103D00001B781BB91E4B1B68762B10D91D4B1B78DB
:103D100063B91D4B1B68762B08D81C4C20780128F2
:103D200017D11B4B1B6898470023237010BD194CFB
:103D30002378012B06D1164B02201B6898470023DD
:103D40002370E3E7022B0BD1114B08201B68984727
:103D5000F5E702280BD10E4B07201B689847E3E7D5
:103D6000032BECD10A4B0A201B689847E7E703288E
:103D7000DAD1074B09201B689847D5E76932002044
:103D80006432002068320020603200205D32002062
:103D90008C3200205C3200200D2808B504D00E289B
:103DA00001D1012914D008BD0129FCD10022A42190
:103DB0001648FDF755FE00BB002244F6CD411448DD
:103DC000FDF74EFEB0B9134A13780133137008BDE6
:103DD0000022A4210D48FDF743FEA0B9002244F6BD
:103DE000CD410B48FDF73CFE50B90B4A1378013327
:103DF000137008BDFDF76CFBE5E7FDF769FBDBE73A
:103E0000FDF766FBF1E7FDF763FBE7E76C320020A7
:103E1000903200205C3200205D32002008B5164B45
:103E20001860FDF7B7FD18BB40F21F52022113487E
:103E3000FDF7CAFAC8B9FDF71FFB98B9104A114837
:103E40000021FDF7FBFD50B90F4A10480021FDF796
:103E5000F5FD00B908BDBDE80840FDF739BBFDF729
:103E600037FBF1E7FDF734FBE8E7FDF731FBE2E76D
:103E7000FDF72EFBD8E700BF8C320020542800202D
:103E8000993B0300F8570300FD3C0300FC57030077
:103E9000C4DF7047C7DF7047C8DF7047C9DF7047AE
:103EA000CCDF7047CFDF7047F8B590F82D30062B88
:103EB00033D009D91F2B06D3222B01D9802B02D155
:103EC00043784F2B50D0F8BD032B01D0052BFAD1EE
:103ED000684B694C1A78002A3FD1684E0546FDF7B9
:103EE00079F92278664B3478DC71C2B914F03F005E
:103EF0001CD1644A117899705278DA704FF61131FA
:103F00004FF0FF3519801A4608215D60FFF7C2FFA8
:103F100048B1FDF7DDFA347805E0574CDDE7012ABA
:103F20002FD0022A4CD001343470F8BD56491046C7
:103F30008D780A784F789A701D71CA785A714FF44B
:103F40007B414FF6FF751980DF701A460821DD802E
:103F5000FFF7A0FF0028E6D0DBE72278012ABCD1DA
:103F6000002222701A70B8E7484A494B9B1ADB08B6
:103F70001B04C11C082243F00300BDE8F840FCF715
:103F8000D9BE4449DFF8ECE00F78CD78487891F855
:103F900002C08EF8002045EA0C013843FF250427B3
:103FA000597098701A46082100201F70DD701D712D
:103FB0005D719D71DD71FFF76FFF0028B3D0A8E739
:103FC00095F82D30062B4AD00025631C64F30705B5
:103FD00063F30F25A31C63F31745E31C63F31F650D
:103FE00005F07F3C0CF1043305F0803C8CEA030CB7
:103FF0000CF07F300CF0803300F10430584000F0BA
:104000007F3100F0803301F10431594001F07F32FB
:1040100001F0803302F104325A4002F07F3707F199
:10402000043302F080375F401B4B07F07F3E0EF1F8
:10403000043EC3E9005C07F0803585EA0E05C3E95C
:10404000020105F07F3101F10431C3E9042705F0D5
:1040500080324A402034C3E90652E4B2347003236C
:104060000D4A20210020FFF719FF00283FF45BAF25
:104070004FE700BFB43200207D33002064280020C9
:10408000D8320020E4320020E0320020805C0300BF
:10409000A05C0300B0320020B832002030B52A4BBB
:1040A0002A4A2B482B4C1C6085B04FF0F0252A493A
:1040B000156040F2051340F602344FF08052048040
:1040C0000191ADF80830126EADF80A20002342F2DB
:1040D000060222498DF80E301846ADF80C20FFF785
:1040E000DFFE68BB01A8FFF733FD30BB002210469E
:1040F0000321FFF7D7FEE8B900210846FFF7C8FE05
:10410000A8B9174C08220021204600F0A6FC154B48
:1041100022461B78E37108210020FFF7BBFE08B19F
:10412000FDF7D6F9104B00221A7005B030BDFDF72F
:10413000CFF9E6E7FDF7CCF9DEE7FDF7C9F9D5E7FA
:10414000FDF7C6F9CEE700BFE0320020B032002014
:10415000E4320020010164000010003968280020CA
:10416000D8320020642800207D33002008B50A28BA
:1041700023D8DFE800F03806445C6B7A8998A7B64C
:104180002300664B66486749C01AC008000440F027
:104190000300FCF783FA644B1A7810200132D2B284
:1041A0000F2A1A704FF0F00188BF00225870D970A2
:1041B00088BF1A705D4B01221A7008BD574B5848D2
:1041C0005B49C01AC008000440F00300FCF766FA1F
:1041D000584B9A78D978013A9A70002900F09A8061
:1041E0000022DA7008BD4D4B4D485349C01AC00833
:1041F000000440F00300BDE80840FCF74FBA474B0D
:1042000047484E49C01AC008000440F00300FCF7BC
:1042100045FA454B9A7810200132D2B2F0210F2A8C
:10422000D87059709A70C5D900229A70C2E73B4B7A
:104230003B484349C01AC008000440F00300FCF7A3
:104240002DFA394B1A7820200132A8E7334B344835
:104250003C49C01AC008000440F00300FCF71EFAF5
:10426000314B9A7820200132D7E72C4B2C48364925
:10427000C01AC008000440F00300FCF70FFA2A4BF4
:104280001A78302001328AE7244B25482F49C01A7A
:10429000C008000440F00300FCF700FA224B9A78B3
:1042A00030200132B9E71D4B1D482949C01AC0080A
:1042B000000440F00300FCF7F1F91B4B1A78402092
:1042C00001326CE7154B16482249C01AC008000499
:1042D00040F00300FCF7E2F9134B9A7840200132DA
:1042E0009BE70E4B0E481C49C01AC008000440F062
:1042F0000300FCF7D3F90F4A53780133DBB20B2BE1
:1043000088BF012353701378012B0CBF02230123B4
:10431000137008BD0322DA7008BD00BF805C030083
:10432000A05C030038580300B03200207D33002029
:10433000645A0300E0320020005803007058030064
:10434000A8580300E45803002059030064590300EF
:10435000AC590300E8590300285A030008B54FF48C
:1043600000410020FCF73AF908B1FDF7B1F8FCF77D
:10437000BBF81048FFF752FD00F006FA08B1FDF750
:10438000A7F800F0D9FA08B1FDF7A2F8FFF786FE0A
:1043900009480A4B0A49C01AC008000440F003004B
:1043A000FCF77CF9FCF76AFD0028FBD1FEF7C6F9A3
:1043B000F8E700BF6D410300A05C0300805C0300D0
:1043C000A45A030030B4904B1B78062B20D08F4B9F
:1043D0001B68062B00F085808D4AD2F8883043F4A4
:1043E0007003C2F88830BFF34F8FBFF36F8F4FF069
:1043F0001023D3F80022002AC0F28681D3F80432B9
:10440000002BC0F28181834B834A1A6030BC704715
:10441000824B1B681D07DAD1814B1B6803F0F00249
:10442000302A00F09E8003F0E003402B00F09980DA
:104430007B4B1B6803F0F003302B00F0B980784B06
:104440001B6803F0F002302A56D003F0E003402B43
:1044500052D0734B1B6803F0F003302B00F0B68092
:104460006F4B1B6803F0F002302A66D003F0E003C4
:10447000402B62D06A4B1B6803F0F003302B00F036
:10448000B580674B1B6803F0F003302B79D0644B89
:104490001B6803F0F003502B00F0E480604B1B68B6
:1044A00003F0F002302A37D003F0E003402B33D082
:1044B0005B4B1B6803F0F002302A03D003F0E003EB
:1044C000402B84D14FF08043D3F80024D20744BF5F
:1044D0006FF00102C3F800244C4B1B68062B7FF4DD
:1044E0007BAF504B1B68062B7FF476AF4E4A1368A8
:1044F00043F4806313606FE74C4B434A1B681278A8
:104500004B49C3F34233062A0B6048D1434B1B6827
:1045100019077FF45CAF9CE7464A3B4B12681B7857
:10452000454902F04F02062B0A607FF450AF3B4B27
:104530001B6819077FF44BAFBAE74FF080430022A6
:10454000C3F80C21C3F81021C3F838252E4B1B7873
:10455000062B7FF43CAF314B1B681B077FF437AF52
:1045600088E7364B284A1B6812783549C3F3042381
:10457000062A0B60EAD1294B1B681C077FF427AF82
:1045800056E7304C204A304912783048304B0525E8
:10459000256001250D6000243F2104601960062A72
:1045A0007FF415AF1D4B1B681C077FF410AF6EE73F
:1045B000154B284A1B7828491160062B7FF407AF5A
:1045C000164B1B6818077FF402AF38E723490E4BE0
:1045D000CA681B7822F08072062BCA607FF4F7AE9F
:1045E0000E4B1B681A077FF4F2AE39E7064B1C4AE4
:1045F0001B780321062B11607FF4E9AE074B1B6883
:104600001D077FF4E4AE3CE7E00F00F0300100103E
:1046100000ED00E0702800200090D003E40F00F0CF
:10462000E80F00F0340100103C1700404402001075
:104630003C05004058020010E40E00402403001026
:104640004035014010560040885600401856004042
:104650001456004074C007400DF0ADBAF0ED00E014
:10466000A00500404FF08053404AD3F80414C2F82C
:104670002015D3F80814C2F82415D3F80C14C2F886
:104680002815D3F81014C2F82C15D3F81414C2F856
:104690003015D3F81814C2F83415D3F81C14C2F826
:1046A0004015D3F82014C2F84415D3F82414C2F8E6
:1046B0004815D3F82814C2F84C15D3F82C14C2F8B6
:1046C0005015D3F83014C2F85415D3F83414C2F886
:1046D0006015D3F83814C2F86415D3F83C14C2F846
:1046E0006815D3F840142248C2F86C15D3F8441466
:1046F0000378C2F87015062B7FF469AE1D4B1B685A
:1047000018077FF464AEC9E61B4B0122C3F80425E9
:10471000D3F80024002AFBD04FF0102315221649AD
:10472000C3F80022D1F80034002BFBD04FF0102248
:104730001521114BC2F80412D3F80024002AFBD033
:1047400000220D49C3F80425D1F80034002BFBD01A
:10475000BFF34F8F09490A4BCA6802F4E062134362
:10476000CB60BFF34F8F00BFFDE700BF00C000402C
:10477000E00F00F0E40F00F000E0014000ED00E089
:104780000400FA0510DF704770B53C4D2B7884B0FB
:10479000002B64D13A4E3B49012302A83370FEF747
:1047A00003F8039B002B50D1374902A8FDF7FCFF0B
:1047B000039B4BB1D3E900210020904702A8FDF7ED
:1047C000FDFF039B002BF5D1304A002312688DF8C2
:1047D000083002A80192FDF7D3F92D4A2D4901A80E
:1047E000FFF7D0FFB0FA80F304465B099DF808009C
:1047F0002B70FDF7EBF9002C2ED1274B27491C70AD
:10480000347091F81623EC2352091341DB072FD59E
:10481000234B9A683ABB4FF480030B601A4902A8F5
:10482000FDF7C2FF039BBBB1D3E9002101209047F4
:1048300002A8FDF7C3FF039B002BF5D10CE002A8F3
:10484000FDF7BCFF039B002BAED0D3E90021002075
:1048500090470028F3D10446204604B070BD0824D8
:10486000204604B070BD1A6842F480021A60D5E791
:1048700042F20200FCF72CFED0E700BFE732002036
:10488000E6320020F45A03000C5B0300C85A030010
:10489000CC5A0300F1140300E832002000E100E0EC
:1048A00070330020014B1878704700BFE7320020BA
:1048B00000B583B068460849FDF776FF019B43B118
:1048C000D3E9002090476846FDF778FF019B002B55
:1048D000F6D103B05DF804FB005B0300C1DF704755
:1048E000FADF7047124B1B780BB310B5114C8EB02A
:1048F00002AA0DF135010DA8FFF7F0FF88B9214696
:104900006846FDF751FF019B002BF1D0D3E9002150
:1049100002A890476846FDF751FF019B002BF5D197
:10492000E6E7052801D0FCF7D3FD0EB010BD7047B7
:104930006C3300204C5B030010B5114B93E807006B
:1049400084B001AB83E807001846FFF7C9FF0446AF
:1049500028B90C4B012220461A7004B010BDFDF797
:1049600039FF094A094B0A499B1ADB081B04024616
:1049700043F00100FCF740F8204604B010BD00BF32
:10498000205B03006C330020805C0300B85C0300F4
:104990002C5B030008B5074B044613B10021AFF3AD
:1049A0000080054B1868836A03B19847204600F0E1
:1049B00071F800BF00000000645B030070B50D4E8D
:1049C0000D4CA41BA4100025A54209D10B4E0C4C84
:1049D00000F062F8A41BA4100025A54205D170BD0B
:1049E00056F8253098470135EEE756F825309847B8
:1049F0000135F2E7442A0020442A0020442A0020FE
:104A0000482A0020044B054A1B681B6A002B08BF7C
:104A10001346D3F8EC00704774280020D8280020F3
:104A200082B001B901A942B14BB113780B60127881
:104A3000101C18BF012002B070471046FBE76FF052
:104A40000100F8E710B5431E0A44914200D110BDA1
:104A500011F8014B03F8014FF7E702440346934274
:104A600000D1704703F8011BF9E7034613F8012B47
:104A7000002AFBD1181A0138704749B1FF2A85BFB7
:104A80008A2303600A704FF0FF3098BF01207047FF
:104A900008467047FEE700BFF8B500BFF8BC08BC89
:104AA0009E467047F8B500BFF8BC08BC9E467047EC
:104AB000FFFFFFFFFFFFFFFFFFFFFFFFFFFFFFFF06
:104AC00000000000000000000000D6010601000008
:104AD000D503030041040300D10303007561727420
:104AE0005F6C6F675F6261636B656E6400000000FE
:104AF000A82F00207F000000283000204261636B57
:104B0000656E647320666C757368656400000000F0
:104B1000617070006C4B03009C4B03004C4B030016
:104B2000A44B0300AC4B0300B44B0300BC4B03008D
:104B3000C44B0300CC4B030020253032780000002A
:104B4000202020007C000000256300001B5B313B1F
:104B500033316D0025734C6F67732064726F707012
:104B60006564202825642925730D0A001B5B306DC0
:104B700000000000257300003C25733E2025733A99
:104B8000200000000D0A000000000000484F030054
:104B9000D44B0300DC4B0300E44B03001B5B313BB5
:104BA00033306D001B5B313B33326D001B5B313B9F
:104BB00033336D001B5B313B33346D001B5B313B8A
:104BC00033356D001B5B313B33366D001B5B313B76
:104BD00033376D007761726E696E6700696E666F5C
:104BE0000000000064656275670000004830002026
:104BF000466174616C206572726F720053797374D0
:104C0000656D20726573657400000000000000008F
:104C10000338FDD8704700004841524420464155B2
:104C20004C54206174203078253038580000000042
:104C3000202052303A202030782530385820205219
:104C4000313A2020307825303858202052323A200E
:104C500020307825303858202052333A20203078C0
:104C6000253038580000000020205231323A2030E0
:104C7000782530385820204C523A20203078253082
:104C8000385820205053523A203078253038580078
:104C9000537461636B2076696F6C6174696F6E3AEF
:104CA00020737461636B20706F696E746572206F1E
:104CB00075747369646520737461636B20617265D8
:104CC000612E000043617573653A20427573466139
:104CD000756C74206F6E206120766563746F72202E
:104CE0007461626C65207265616420647572696EBE
:104CF0006720657863657074696F6E2070726F638A
:104D0000657373696E672E0043617573653A20257C
:104D1000732E00004D656D4D616E616765204661C3
:104D2000756C7420416464726573733A2030782521
:104D300030385800427573204661756C74204164A8
:104D400064726573733A203078253038580000005B
:104D5000B84D0300F84D030000000000544E03005E
:104D6000A04E0300EC4E0300000000000000000015
:104D7000384F0300504F0300BC4F0300285003007E
:104D80006C500300B0500300000000000000000061
:104D9000B84D0300F450030050510300D8510300F4
:104DA0000000000000000000000000000000000003
:104DB0000C520300405203005468652070726F6308
:104DC0006573736F722068617320617474656D70B0
:104DD00074656420746F20657865637574652061FF
:104DE0006E20756E646566696E656420696E7374A5
:104DF00072756374696F6E005468652070726F63BA
:104E00006573736F7220617474656D70746564206E
:104E100061206C6F6164206F722073746F72652003
:104E200061742061206C6F636174696F6E207468B7
:104E3000617420646F6573206E6F74207065726D8D
:104E4000697420746865206F7065726174696F6E33
:104E500000000000556E737461636B20666F7220F2
:104E6000616E20657863657074696F6E2072657419
:104E700075726E2068617320636175736564206F5D
:104E80006E65206F72206D6F72652061636365735C
:104E9000732076696F6C6174696F6E730000000037
:104EA000537461636B696E6720666F7220616E2058
:104EB000657863657074696F6E20656E74727920B1
:104EC00068617320636175736564206F6E65206F20
:104ED00072206D6F726520616363657373207669FC
:104EE0006F6C6174696F6E730000000041204D6546
:104EF0006D4D616E616765206661756C74206F63CE
:104F000063757272656420647572696E6720666C81
:104F10006F6174696E672D706F696E74206C617A51
:104F2000792073746174652070726573657276613F
:104F300074696F6E00000000496E7374727563745B
:104F4000696F6E20627573206572726F7200000067
:104F50004461746120627573206572726F722028DB
:104F600050432076616C756520737461636B656472
:104F700020666F7220746865206578636570746957
:104F80006F6E2072657475726E20706F696E7473C7
:104F900020746F2074686520696E73747275637411
:104FA000696F6E2074686174206361757365642035
:104FB000746865206661756C7429000044617461D1
:104FC00020627573206572726F7220287265747525
:104FD000726E206164647265737320696E207468F8
:104FE0006520737461636B206672616D65206973FF
:104FF000206E6F742072656C6174656420746F201C
:1050000074686520696E737472756374696F6E205D
:1050100074686174206361757365642074686520C9
:105020006572726F72290000556E737461636B2034
:10503000666F7220616E20657863657074696F6E4B
:105040002072657475726E20686173206361757378
:105050006564206F6E65206F72206D6F72652042EF
:1050600075734661756C747300000000537461635E
:105070006B696E6720666F7220616E20657863656C
:105080007074696F6E20656E747279206861732028
:10509000636175736564206F6E65206F72206D6F3C
:1050A0007265204275734661756C74730000000070
:1050B0004120627573206661756C74206F6363753F
:1050C0007272656420647572696E6720666C6F61C8
:1050D00074696E672D706F696E74206C617A7920C7
:1050E000737461746520707265736572766174693A
:1050F0006F6E00005468652070726F636573736F24
:10510000722068617320617474656D7074656420C9
:10511000746F206578656375746520616E20696EB3
:10512000737472756374696F6E2074686174206D36
:10513000616B657320696C6C6567616C2075736564
:10514000206F6620746865204550535200000000AF
:105150005468652070726F636573736F7220686145
:105160007320617474656D7074656420616E20696C
:105170006C6C6567616C206C6F6164206F662045A4
:1051800058435F52455455524E20746F20746865E1
:105190002050432C206173206120726573756C74FC
:1051A000206F6620616E20696E76616C6964206391
:1051B0006F6E746578742C206F7220616E20696E3A
:1051C00076616C6964204558435F52455455524E90
:1051D0002076616C756500005468652070726F639D
:1051E0006573736F722068617320617474656D708C
:1051F00074656420746F206163636573732061203C
:10520000636F70726F636573736F720054686520AB
:1052100070726F636573736F7220686173206D6164
:10522000646520616E20756E616C69676E656420CF
:105230006D656D6F72792061636365737300000043
:105240005468652070726F636573736F7220686154
:105250007320657865637574656420616E205344BE
:105260004956206F72205544495620696E737472F6
:10527000756374696F6E2077697468206120646952
:105280007669736F72206F66203000006861726407
:105290006661756C74000000303132333435363756
:1052A00038394142434445467077725F6D676D748B
:1052B00000000000556E6B6E6F776E206572726F26
:1052C0007220636F6465000000000000F05303006B
:1052D00001000000FC530300020000001C54030006
:1052E0000300000040540300040000005454030075
:1052F0000500000068540300060000007C54030011
:10530000070000009454030008000000AC540300A0
:1053100009000000C45403000A000000E054030028
:105320000B000000F85403000C00000010550300AF
:105330000D000000245503000E0000003855030046
:105340000F00000048550300100000005C550300EA
:105350001100000074550300120000008455030082
:10536000130000009C55030080000000B0550300AE
:1053700081000000D455030082000000F0550300B6
:10538000830000000C560300840000002C5603002C
:105390008500000050560300860000007856030088
:1053A000900000009056030091000000B0560300EA
:1053B00092000000D056030000820000E85603006F
:1053C00001820000085703000282000024570300F6
:1053D000008400004057030001840000645703006C
:1053E000028400009057030003840000B8570300B4
:1053F0004E52465F53554343455353004E52465F0A
:105400004552524F525F5356435F48414E444C45BC
:10541000525F4D495353494E470000004E52465F7C
:105420004552524F525F534F4654444556494345A7
:105430005F4E4F545F454E41424C454400000000D2
:105440004E52465F4552524F525F494E5445524E5E
:10545000414C00004E52465F4552524F525F4E4FF4
:105460005F4D454D000000004E52465F4552524F81
:10547000525F4E4F545F464F554E44004E52465F6A
:105480004552524F525F4E4F545F535550504F52FA
:10549000544544004E52465F4552524F525F494E6A
:1054A00056414C49445F504152414D004E52465F77
:1054B0004552524F525F494E56414C49445F5354F6
:1054C000415445004E52465F4552524F525F494E3D
:1054D00056414C49445F4C454E475448000000003B
:1054E0004E52465F4552524F525F494E56414C49CB
:1054F000445F464C414753004E52465F4552524F1F
:10550000525F494E56414C49445F4441544100006A
:105510004E52465F4552524F525F444154415F5391
:10552000495A45004E52465F4552524F525F5449C8
:105530004D454F55540000004E52465F4552524F64
:10554000525F4E554C4C00004E52465F4552524FF2
:10555000525F464F5242494444454E004E52465FC8
:105560004552524F525F494E56414C49445F414467
:10557000445200004E52465F4552524F525F4255D0
:10558000535900004E52465F4552524F525F434FAF
:105590004E4E5F434F554E54000000004E52465F42
:1055A0004552524F525F5245534F55524345530057
:1055B0004E52465F4552524F525F4D4F44554C45F7
:1055C0005F4E4F545F494E495449414C495A4544F6
:1055D000000000004E52465F4552524F525F4D55FB
:1055E0005445585F494E49545F4641494C45440033
:1055F0004E52465F4552524F525F4D555445585F8B
:105600004C4F434B5F4641494C4544004E52465F28
:105610004552524F525F4D555445585F554E4C4F71
:10562000434B5F4641494C45440000004E52465FA3
:105630004552524F525F4D555445585F434F4E446B
:105640005F494E49545F4641494C454400000000C3
:105650004E52465F4552524F525F4D4F44554C4556
:105660005F414C52454144595F494E495449414C70
:10567000495A4544000000004E52465F4552524F81
:10568000525F53544F524147455F46554C4C0000C2
:105690004E52465F4552524F525F4150495F4E4F06
:1056A000545F494D504C454D454E54454400000013
:1056B0004E52465F4552524F525F464541545552F5
:1056C000455F4E4F545F454E41424C4544000000FB
:1056D0004E52465F4552524F525F494F5F50454EC2
:1056E00044494E47000000004E52465F4552524F1B
:1056F000525F4452565F5457495F4552525F4F566E
:10570000455252554E0000004E52465F4552524F90
:10571000525F4452565F5457495F4552525F414E63
:1057200041434B004E52465F4552524F525F4452E6
:10573000565F5457495F4552525F444E41434B00B8
:105740004E52465F4552524F525F424C455F495060
:1057500053505F52585F504B545F5452554E434123
:10576000544544004E52465F4552524F525F424CA0
:10577000455F495053505F4348414E4E454C5F4151
:105780004C52454144595F45584953545300000019
:105790004E52465F4552524F525F424C455F495010
:1057A00053505F4C494E4B5F444953434F4E4E4517
:1057B00043544544000000004E52465F4552524F4C
:1057C000525F424C455F495053505F504545525FD0
:1057D00052454A4543544544000000004750494F54
:1057E00054450000505253005541525400000000EF
:1057F00055415254450000006C3200209032002088
:10580000616E745F6D6573736167655F74797065F0
:10581000735F6D61737465725F6273705F657674D8
:105820005F68616E646C65723A2069742773206EDC
:105830006F7468696E672100616E745F6D65737364
:105840006167655F74797065735F6D6173746572AC
:105850005F6273705F6576745F68616E646C6572B9
:105860003A2069742773206C65667421000000007B
:10587000616E745F6D6573736167655F7479706580
:10588000735F6D61737465725F6273705F65767468
:105890005F68616E646C65723A2069742773207268
:1058A0006967687421000000616E745F6D657373D1
:1058B0006167655F74797065735F6D61737465723C
:1058C0005F6273705F6576745F68616E646C657249
:1058D0003A2069742773206C656674206C6F6E675C
:1058E00021000000616E745F6D6573736167655FB1
:1058F00074797065735F6D61737465725F627370E4
:105900005F6576745F68616E646C65723A20697475
:105910002773207269676874206C6F6E67210000BE
:10592000616E745F6D6573736167655F74797065CF
:10593000735F6D61737465725F6273705F657674B7
:105940005F68616E646C65723A2069742773206CBD
:10595000656674206C6F6E6720636F6E74696E7518
:1059600065642100616E745F6D6573736167655F67
:1059700074797065735F6D61737465725F62737063
:105980005F6576745F68616E646C65723A206974F5
:105990002773207269676874206C6F6E6720636F6D
:1059A0006E74696E7565642100000000616E745F3D
:1059B0006D6573736167655F74797065735F6D6141
:1059C000737465725F6273705F6576745F68616E31
:1059D000646C65723A2069742773206C6566742064
:1059E000646F75626C652100616E745F6D657373C1
:1059F0006167655F74797065735F6D6173746572FB
:105A00005F6273705F6576745F68616E646C657207
:105A10003A206974277320726967687420646F750F
:105A2000626C652100000000616E745F6D657373C8
:105A30006167655F74797065735F6D6173746572BA
:105A40005F6273705F6576745F68616E646C6572C7
:105A50003A2069742773206C6566742074726970CB
:105A60006C652100616E745F6D6573736167655F5E
:105A700074797065735F6D61737465725F62737062
:105A80005F6576745F68616E646C65723A206974F4
:105A9000277320726967687420747269706C65215D
:105AA00000000000414E54204D657373616765200E
:105AB0005479706573206578616D706C65207374BE
:105AC00061727465642E00000100000733383331C1
:105AD0002D353231642D376466392D323464382DDA
