:020000022000DC
:1060000000000120B5620200DD620200DF620200D2
:10601000E1620200E3620200E562020000000000AB
:10602000000000000000000000000000E762020025
:10603000E962020000000000EB620200ED62020073
:10604000E5AD0200EF62020011B70200EF6202004C
:10605000EF620200EF620200C9B10200EF620200CB
:10606000EF620200EF620200EF620200EF620200E4
:10607000EF620200EF620200EF620200EF620200D4
:10608000EF620200E9730200EF620200EF620200B9
:10609000B1740200EF62020079580300EF6202005F
:1060A000EF620200EF620200EF620200EF620200A4
:1060B000EF620200EF62020000000000000000003A
:1060C000EF620200EF620200EF620200EF62020084
:1060D000EF620200EF620200EF62020000000000C7
:1060E00000000000000000000000000000000000B0
:1060F00000000000000000000000000000000000A0
:10610000000000000000000000000000000000008F
:10611000000000000000000000000000000000007F
:10612000000000000000000000000000000000006F
:10613000000000000000000000000000000000005F
:10614000000000000000000000000000000000004F
:10615000000000000000000000000000000000003F
:10616000000000000000000000000000000000002F
:10617000000000000000000000000000000000001F
:10618000000000000000000000000000000000000F
:1061900000000000000000000000000000000000FF
:1061A00000000000000000000000000000000000EF
:1061B00000000000000000000000000000000000DF
:1061C00000000000000000000000000000000000CF
:1061D00000000000000000000000000000000000BF
:1061E00000000000000000000000000000000000AF
:1061F000000000000000000000000000000000009F
:1062000010B5054C237833B9044B13B10448AFF3F0
:1062100000800123237010BD782F002000000000B3
:10622000B4AD030008B5034B1BB103490348AFF3FA
:10623000008008BD000000007C2F0020B4AD0300EA
:10624000154B002B08BF134B9D46A3F5803A002148
:106250008B460F461348144A121A11F01BFA0F4BC3
:10626000002B00D098470E4B002B00D09847002001
:10627000002104000D000D48002802D00C48AFF3A7
:10628000008011F0A9F92000290006F0E7FE11F0C6
:106290008FF900BF0000080000000120000000008E
:1062A00000000000782F002064460020000000005D
:1062B000000000000649074A074B9B1A03DD043B18
:1062C000C858D050FBDC04F087FAFFF7B9FF000094
:1062D0003CAF030090280020782F0020FEE7FEE767
:1062E000FEE7FEE7FEE7FEE7FEE7FEE7FEE7FEE786
:1062F000F0B595B0002415460F4608461E4604F03A
:1063000043F9384623460895082205A91A9D09969F
:106310000D950A948DF82C400C9404F08FF99DF89B
:1063200014308DF81140DDE9061003F00302012A54
:10633000CDE9020127D0022A04D0384604F028F91A
:1063400015B0F0BDBDF81650C3F3C2038DF8103080
:10635000AD090826082D2C4628BF082433462246BE
:106360000EA9384604F06AF92D1B214608AB02AA93
:106370000EA8264400F05CFE002DEBD1384604F058
:1063800007F915B0F0BDBDF81460059DC6F383167E
:10639000C3F3C204B2000EA9384608238DF810409A
:1063A000C5F3952504F04AF908AB324628460EA9F4
:1063B000009302AB00F096FD384604F0E9F815B002
:1063C000F0BD00BF014B01221A707047D82F00208A
:1063D000704700BF00B583B0044B0093044A4023CC
:1063E000FFF786FF03B05DF804FB00BFF563020012
:1063F000982F002038B50E480E4D03780E4CEB5CFC
:106400000025D2B2257053B90C3005F0C7FB58B93E
:106410000A4B1B7813B12378002BFCD038BD043015
:1064200005F0F4FD0028F3D000F0B2FEF0E700BF65
:106430009028002060460020D82F0020942F0020B4
:1064400070B51348134A0378D35C88B0DBB90C30BD
:1064500005F03EFB104D0FCD6C460FC495E80F00C4
:1064600008AD062645F8206D84E80F002946002275
:10647000074804F04BFC08B100F08AFE074B0022ED
:106480001A7008B070BD043005F058FDE2E700BF97
:106490009028002060460020C87E0300942F002032
:1064A00070B50D4D0FCD88B06C460FC495E80F0048
:1064B00008AD062645F8206D84E80F002946074AF6
:1064C000074804F023FC08B100F062FE054B0122EE
:1064D0001A7008B070BD00BFC87E0300C56302001B
:1064E00090280020942F002008B5FFF7D9FF042141
:1064F000034800F0ADFC034B01225A7108BD00BFF8
:1065000024AF0300A4280020F0B5324C85B004F578
:10651000836002F037FF04F2144002F033FFD4E945
:10652000013703EA0702D01C04EB800114F82000B5
:1065300010F0040044D003F1020C0E7806F00306BC
:10654000012E654635D0022E02F1030621D004EB60
:1065500086010028F1D104EB82020133D268019256
:106560003B4004EB830302F00302012ADE6829D0DA
:10657000022A23D1BDF806309B090333360C05EB04
:106580009305154802F00AFF00B16560304605B07A
:10659000F0BD4B880CEB931307EA0302D11C03F107
:1065A000020C14F82100654604EB810100F00400A0
:1065B000CFE70B88C3F383136344EDE70026E0E7DE
:1065C0009D1CC8E7BDF80430C3F38313360C1D448B
:1065D000D7E700BFAC300020C03400200B4B0C4884
:1065E00010B50022FF21C3F818249960C3E90022E6
:1065F000C3F8142483F8202403F082FF044610B962
:10660000044804F08FF8204610BD00BFAC300020D5
:1066100050AE0300087F030021B9124B03EBC0000A
:1066200000687047104A0F49521AD20815D030B48A
:106630000E4D2B88834212D0002303E035F823400F
:10664000844205D001339A42F8D1002030BC704713
:1066500001EBC300006830BC704710467047084625
:10666000F8E700BF64AE030024AF0300782F0020DA
:10667000094B013903EBC00003290BD8DFE801F017
:10668000020806040220704740797047007970477D
:10669000042070470020704764AE03002DE9F043EA
:1066A00083B002AB002203F8012DDFF8DC9007462F
:1066B00018468846D9F8084001F0BAF9D9E90132FC
:1066C000D9F80060134401339B1B012B58D809F201
:1066D0001C450121284602F031FEFFF715FF014657
:1066E000284602F02BFED9E90132D9F800101344F4
:1066F00001335B1A012BECD90A4003320523023126
:106700009DF8070049F82230C9F8001001F0B6F9E9
:1067100000211C4802F0D8FD80F31000731C2340B8
:1067200009EB830300043440033440EA1740D86087
:1067300019F8243067F3C50309F8243039F82430F8
:106740006FF3891329F8243059F8242068F39F2225
:106750001346012161F301036FF3820349F82420FA
:1067600009F8243099F820341BB906E000F00EF83F
:1067700018B1D9E900329A42F8D103B0BDE8F083EC
:106780003146B9E7C8340020AC3000202DE9F0478D
:10679000934C002384B0C4F81834BFF34F8FD4E96E
:1067A000015605EA0602D31C04EB830114F82330DA
:1067B000580719D527680B7803F00303012B43D042
:1067C000022B03D14B88023505EB931506EA05022F
:1067D000D4F81804D31C04EB830128B9AF4239D98B
:1067E00014F823305B07E6D404EB82026B1CD268FA
:1067F0000192334004EB830302F00302DB6802934F
:10680000022A05F1020700F08D80012A26D0D4F873
:1068100010543DB12B6828469B689847EB681D686B
:10682000002DF7D16F48704B7049C01AC0080004A2
:1068300040F00200FFF732FFD4E90030C01A18BF61
:10684000012004B0BDE8F0870B880235C3F3831341
:106850001D44BBE7676004B0BDE8F087BDF80420C5
:106860006348C2F38313062B28BF062363F3891200
:1068700002339900ADF8042003F044FE804600285E
:10688000C5D003F081FE0023082201A9404603F091
:10689000A1FEBDF8043013F4707F00F09F806FF00C
:1068A000010AAAEB050A082506EA070103312B466F
:1068B000042204EB8101404603F08CFEBDF8043055
:1068C00007F101090AEB0902C3F3831393424F4610
:1068D00005F10405E8D8D4F81834002B68D1D4F8B1
:1068E000105465B1EB685A7928464146002A5BD0BE
:1068F0002B681B689847EB681D68002DF2D1404655
:1069000003F046FE04A8002300F80D3D01F090F8C6
:10691000D4F818340BB9C4F804909DF8030001F0C2
:10692000ADF889E7BDF8063031484FEA93194D4676
:10693000502D28BF502565F38F1305F10801ADF8E0
:10694000063003F0DFFD804600283FF460AF26EA02
:10695000070A0AF1010A03F017FE4FEA8A0A002328
:10696000082201A9404603F035FE55452BD9EBB26C
:10697000BAF1000F20D006EA0701A3EB0A030331A6
:1069800004EB8101DDB252460823404603F022FEAB
:106990002A460AF108031749404603F01BFE09F195
:1069A000030907EB990996E71D68002D9AD1A6E720
:1069B000404603F0EDFD3FE72A4608230D494046D7
:1069C00003F008FEEBE706EA0701033104EB81015F
:1069D0002A460823404603F0FDFDE0E7B9467AE782
:1069E000AC3000208CAE030064AE0300147F0300C3
:1069F00050AE0300B83000202DE9F04782B002AB62
:106A0000002403F8014DDFF8ECA007461846914634
:106A10008846DAF8084001F00BF8DAE90132DAF8D2
:106A20000060134401339B1B022B5ED80AF21C4505
:106A30000121284602F082FCFFF766FD0146284648
:106A400002F07CFCDAE90132DAF800101344013379
:106A50005B1A022BECD90A400332033145239DF81F
:106A600007004AF82230CAF8001001F007F8B31CFA
:106A700023400AEB830300211D48C3F80C9002F069
:106A800023FC80F31000731C23400AEB83030004F3
:106A90003440033440EA1740D8601AF8243067F3D2
:106AA000C5030AF824303AF82430012161F3891330
:106AB0002AF824305AF8242068F39F22134661F301
:106AC00001036FF382034AF824200AF824309AF86D
:106AD00020341BB906E0FFF759FE18B1DAE900329D
:106AE0009A42F8D102B0BDE8F0873146B3E700BF63
:106AF000C8340020AC3000202DE9F04F83B002AD47
:106B0000002405F8014D3B4C8046284693469A46A2
:106B10008946A56800F08CFFD4E901322768134448
:106B20000133DB1B032B63D804F21C4601213046E2
:106B300002F004FCFFF7E8FC0146304602F0FEFBE1
:106B4000D4E901322168134401335B1A032BEDD9D8
:106B50000A400332852344F8223004319DF80700AF
:106B6000216000F08BFFBA1CFB1C2A402B4004EB79
:106B7000820204EB830300211F48C2F80CB0C3F863
:106B80000CA002F0A1FB80F310007B1C2B4004EB57
:106B9000830300043D40033540EA1840D86014F8F0
:106BA000253068F3C50304F8253034F82530022277
:106BB00062F3891324F8253054F8252069F39F22C5
:106BC0001346012161F301036FF3820344F825208A
:106BD00004F8253094F820341BB906E0FFF7D6FD01
:106BE00018B1D4E900329A42F8D103B0BDE8F08F71
:106BF0003946ADE7AC300020C83400202DE9F04F15
:106C000083B002AE002406F8014D3E4C804630466B
:106C100093469A46A568894600F00AFFD4E90132F6
:106C2000276813440133DB1B042B69D804F21C468C
:106C30000121304602F082FBFFF766FC0146304638
:106C400002F07CFBD4E901322168134401335B1A62
:106C5000042BEDD90A400332C52344F82230053114
:106C60009DF80700216000F009FFB81CFA1C2840BD
:106C70002A403B1D2B4004EB800004EB820204EB16
:106C80008303C0F80CB00021C2F80CA01E480C9A77
:106C9000DA6002F019FB80F310007B1C2B4004EB40
:106CA000830300043D40033540EA1840D86014F8DF
:106CB000253068F3C50304F8253034F82530032265
:106CC00062F3891324F8253054F8252069F39F22B4
:106CD0001346012161F301036FF3820344F8252079
:106CE00004F8253094F820341BB906E0FFF74EFD78
:106CF00018B1D4E900329A42F8D103B0BDE8F08F60
:106D00003946A7E7AC300020C83400202DE9F04F09
:106D100087B006AE002406F8114D454C109F04972D
:106D2000CDE90223804699463046119B0593924651
:106D3000A5688B4600F07CFED4E901322768134435
:106D40000133DB1B052B70D804F21C4601213046B1
:106D500002F0F4FAFFF7D8FB0146304602F0EEFAF3
:106D6000D4E901322168134401335B1A052BEDD9B4
:106D70000A40033240F2051344F8223006319DF8F0
:106D800007002160FE1C00F079FEB91C29402E404E
:106D90003A1D2A4004EB810104EB86067B1D2B4043
:106DA00004EB8202C1F80CA004EB8303C6F80C903C
:106DB000109ED6600021119A1E48DA6002F084FA13
:106DC00080F310007B1C2B4004EB830300043D4048
:106DD000033540EA1840D86014F8253068F3C5033D
:106DE00004F8253034F82530042262F3891324F89E
:106DF000253054F825206BF39F221346012161F3BF
:106E000001036FF3820344F8252004F8253094F839
:106E100020341BB906E0FFF7B9FC18B1D4E9003201
:106E20009A42F8D107B0BDE8F08F3946A0E700BF1D
:106E3000AC300020C8340020044BD3E900239A4230
:106E400001D0FFF7A3BC0020704700BFAC3000208A
:106E500030B4184DD5F8104400215CB1E3681A79BC
:106E60008A4204D116E0DB681A798A4212D01B6884
:106E7000002BF8D1C3681971D5F8103493B1DA68D2
:106E8000C36812681A60D5F81034DB68186030BC2B
:106E90000846704701310A29DFD14FF0FF3108461B
:106EA00030BC7047C5F81004C2681360084630BC97
:106EB000704700BFAC30002038B5094BD3F8104400
:106EC000012583F820544CB1E3685D7123682046A6
:106ED0005B689847E3681C68002CF5D138BD00BF9B
:106EE000AC3000202DE9F04784B01D460C9C0023F7
:106EF00094F80C802373EB8881460E461746002BCE
:106F000040D1297A05290ED06B7AA88873BB404BF3
:106F100053F821A00021FFF77FFB524603463D496D
:106F2000204602F0B3FA062F09D8DFE807F0046A1A
:106F30004249525D33004946204602F0A7FA2B7AB7
:106F4000052B05D06B7A5BB93349204602F09EFAD7
:106F5000204602F08FFA84F80C8004B0BDE8F08778
:106F60002E4A2F49204602F091FAEDE7FFF780FB09
:106F70002C4B2B4953F82020204602F087FA297A1F
:106F8000A888C4E7254A00922749284A204602F0EB
:106F90007DFAB6E7D6E90410D6E900230390D6E9D6
:106FA00002070291CDE900074946204602F06EFA39
:106FB000C5E74946D6E90023204602F067FABEE756
:106FC000B168D6E9002320460091494602F05EFAF6
:106FD000B5E7D6E90201D6E90023019100904946C0
:106FE000204602F053FAAAE7D6E90371B068D6E961
:106FF00000230291CDE900074946204602F046FAF7
:107000009DE732684946204602F040FA97E700BF04
:107010009C7F03008C7F0300987F0300847F030024
:10702000489F03002C7F03006C7F0300647F0300F4
:10703000082900D970472DE9F04F1D4690460023DE
:107040002A7B2B7385B0B8F80630039207460E46AC
:10705000002B7BD198F80810052911D098F8093039
:10706000B8F80400002B63D13C4B53F821400021B9
:10707000FFF7D2FA224603463949284602F006FABB
:10708000DFF8FCB0DFF8FC90002405E03A5D013445
:1070900002F0FCF9082C09D0A64249462846F5D84A
:1070A0005946013402F0F2F9082CF5D12D49DFF8E8
:1070B000D8B0DFF8D890284602F0E8F900240CE0B8
:1070C00017F804A0BAF17E0F23D92E22494628468C
:1070D000013402F0DBF9082C08D0A642F0D859465A
:1070E0002846013402F0D2F9082CF6D198F808307D
:1070F000052B02D098F80930A3B91B49284602F0A5
:10710000C5F9284602F0B6F9039B2B7305B0BDE81C
:10711000F08F10F085FA50445246437813F0970FE1
:10712000D3D0D3E7114A1249284602F0AFF9E4E779
:10713000FFF79EFA0F4B0E4953F82020284602F025
:10714000A5F998F80810B8F804008DE7074A0092EE
:1071500009490A4A284602F099F97BE79C7F030017
:107160008C7F03005C7F0300987F0300847F030013
:10717000489F03002C7F03006C7F0300647F0300A3
:10718000587F0300507F0300947F0300607F03005B
:1071900000B585B000230390194601AA44F201000E
:1071A000CDE9013300F004F805B05DF804FB00BF41
:1071B00010B572B6FFF780FEFFF73EFE0028FBD148
:1071C000104B114C1149E41AE408240444F0010066
:1071D000FFF764FA0E4B1B68DB0700D500BE44F0D6
:1071E00002000C49FFF75AFABFF34F8F0A490B4BC5
:1071F000CA6802F4E0621343CB60BFF34F8F00BF55
:10720000FDE700BF64AE03008CAE030008800300FE
:10721000F0ED00E01480030000ED00E00400FA054A
:10722000F0B412F0030412D14B1CDB000A4D0B4EDC
:107230000B4F34709BB213442B600A4E0A4D0B4B1C
:1072400028803A60347019802046F0BC70470724CB
:107250002046F0BC704700BF6C3500206835002028
:1072600070350020783500207435002076350020F8
:107270002DE9F0472D4F3B888B4282B03CD3054629
:1072800002A84FF0000800F8018D16460C4600F0E9
:10729000CFFB274B274A284819781378B0F800C04D
:1072A0009DF80700DBB2634538BF0133C9B238BF70
:1072B0005FFA83F8414523D092F800801378DFF815
:1072C0008090DBB29C4586BF0133DBB200235FFABE
:1072D00088F8137000F0D2FBD9F800300FFA88F26A
:1072E0004FEAC20A43F83260534405B174B9002032
:1072F000988002B0BDE8F087092002B0BDE8F087B1
:1073000000F0BCFB042002B0BDE8F0870B4B3888CE
:107310001B68294608FB0030224610F0B0F9D9F866
:1073200000309A440020AAF80440E2E774350020B7
:107330007835002068350020763500206C35002037
:10734000703500202DE9F84F1B4C1C4D22782B780E
:107350009A4226D0DFF86CA0DFF86C90184FDFF867
:107360006CB04FF000082378DAF800203888D9F89C
:107370000060DBB20FFA83FE02EBCE0103FB00607C
:10738000898852F83E3098472378BBF80010DBB26A
:107390005A1C9942D2B206D9227023782A789A428E
:1073A000E1D1BDE8F88F84F8008022782B789A42EA
:1073B000D9D1BDE8F88F00BF7835002068350020AE
:1073C00074350020703500206C35002076350020A3
:1073D000082910B5044602D00020FFF7D9FED4E9F1
:1073E0000030BDE8104018472DE9F041284A294BEC
:1073F0000024C2F84041C2F84441C2F84841C2F8F2
:107400004C41C2F80041C2F804411B6882B033B35A
:107410002149D2F804550A68204EAD1A1A6825F0A1
:107420007F45AA4227460CD8197CD3F81C80AD1A98
:107430001444B9B9B8F1000F03D043461A68AA4200
:10744000F2D91749174A0B7812789A4219D016497F
:10745000164A41F823404FF48013C2F8003102B0BD
:10746000BDE8F0811F74D3E9053208210192684616
:1074700032460093FFF7FCFE0028DBD0FFF788FEC2
:10748000D8E7531CDBB2022B08BF00230B70DEE7EA
:10749000001001409C36002098360020D173020075
:1074A00095360020943600208C36002000E100E064
:1074B0002DE9F04F8C4A8D4913780978DFF8508216
:1074C000994285B0D8F800A000F07B810133DBB28F
:1074D000022B08BF002386481370864A076852F8BB
:1074E00023107B1823F07F43002403605346264675
:1074F0002046A446ABB11A688A4200F26581DC6876
:10750000C3F800C0891A1044DA6934B13D1825F077
:107510007F45C3E90154DE611E4613460124002B5A
:10752000E9D1002C40F07C8101230093724B734F12
:10753000DFF8E09143F00103019355464FF0000B53
:1075400046B3D6E901C13446F669694B6C481A68FE
:10755000ACEB020323F07F43834248D80B44236003
:1075600000220121C4E90122E2612174002D5DD0D5
:107570002A689A424DD2284603E00A689A424FD2BE
:107580000846C1699B1A0029F7D12360E161C461F3
:10759000002ED6D178783978884264D00B4603EB38
:1075A00043034C1CBA7807EBC303E1B28A421A7951
:1075B000397004BF00213970022A9C6844D0032A24
:1075C00038D0012AE8D1227C002AE5D1D3F80CC0BA
:1075D000C4F804C01969A1605869E06099F8000016
:1075E0009B69A3610028B0D062609446ADE7A2EB2E
:1075F0000C0222F07F428A4202D28B1A2360AFE74C
:1076000000230122C4E90033A360E36122746DB159
:107610002A68C8F80040D31A2B60E56125468FE739
:10762000D21A0A602360E161C461B1E7C8F8004082
:10763000254685E7002DAFD000232B74ED69002D82
:10764000FBD1C8F80050A5E74DB1AC422B4603D1A1
:10765000E4E094422FD01346DA69002AF9D10023DE
:10766000237488429AD1BBF1000F01D1554553D004
:10767000002D56D1234E244A1F4C4FF480334FF433
:1076800000310127C2F880103C43C6F848334FF45C
:107690003C60C6F808337760A047154BB7604FF4DD
:1076A0003C601D60A047194B1D70002389F8003015
:1076B00005B0BDE8F08FA34200F09180E069216839
:1076C000D861002800F086802A4603680B440360D6
:1076D000AA424FF000033978787823741CBF15460E
:1076E0004FF0010BBDE700BF943600209536002017
:1076F000983600208C360020308003007C35002036
:10770000FEFF7F000010014000E100E0893600200C
:107710009C36002088360020009B002BC5D0002D11
:10772000A8D0434B434A1C68D2F80465424FD5F8B1
:1077300000A03978331B23F07F43DD1CB9B93F49E2
:107740003F4B4FF48030C2F844034FF00108C2F8B9
:1077500004034FF40030C1F8800143F001030860D6
:10776000C2F800804FF43C60984787F80080AA4533
:107770002CBF04EB0A0363192E4923F07F43C1F8A1
:107780004035D1F80425921B9B1B22F07F4223F049
:107790007F4303329A4288D9294BD1F80425C1F896
:1077A000402543F001034FF43C609847234B4FF4CE
:1077B0000032C3F80021002389F8003005B0BDE88D
:1077C000F08F00260096B1E674BB521A1A600123AE
:1077D0000093ABE6002339787878237441E71946A3
:1077E000EA69C8F8002092B9CDE90231114BDFF8FF
:1077F00040C001209860019B89F80000CCF800206F
:107800004FF43C609847DDE90231D8F80020C869A0
:107810000968D86100287FF458AF59E72946DFE7A7
:10782000C8F800309A467FE6C8F800309A46CCE7A0
:1078300098360020001001408936002000E100E069
:10784000308003002DE9F8431F4D204E204FDFF814
:1078500098804FF480334FF400324FF00109002438
:10786000C6F8802047EA0907C5F848334FF43C6062
:10787000C5F80833C5F80490B847C5F808904FF428
:107880003C60C8F80040B847124A134B13491C60CB
:107890001470134B134A0C700B2114701C809970D8
:1078A0004FF48012C023C6F8802186F8143332606A
:1078B000C5F8084586F81133D5F80435C8F8003006
:1078C0002046BDE8F88300BF0010014000E100E061
:1078D00030800300893600209C360020943600203A
:1078E0007C3500209536002098360020074B9B7889
:1078F0004BB132B128B10368187C20B959745A6170
:107900007047072070470820704700BF7C35002073
:107910002DE9F047264CA37882B0002B3CD00028FC
:107920003AD004293CD94369002B35D0814602A8BE
:1079300099F811300026012B00F8016D0CBF884624
:10794000B04617468A4600F073F86378A17822782B
:107950009DF807005D1CEDB2A94208BF3546AA425A
:1079600022D003EB430304EBC3030121114AC3F804
:1079700008901971D2F804256570C3E9032AC3E998
:10798000058700F07BF80C4B4FF480123046C3F8AB
:10799000002102B0BDE8F087082002B0BDE8F08702
:1079A000072002B0BDE8F08700F068F80420F0E797
:1079B0007C3500200010014000E100E0F0B51A4CD9
:1079C000A37883B043B338B343692BB3064602A808
:1079D000002500F8015D357400F02AF86278A77878
:1079E00021789DF80700531CDBB29F4208BF2B464D
:1079F000994214D002EB420204EBC20202219660CB
:107A00001171637000F03AF8084B4FF48012284669
:107A1000C3F8002103B0F0BD082003B0F0BD00F0B2
:107A20002DF80420F9E700BF7C35002000E100E0DC
:107A300070B4EFF3108472B60D4B9A68AAB90D4971
:107A40000D4E01259D60D1F8805035401D60C1F874
:107A50008060D1F884505D604FF0FF33C1F884300E
:107A6000027004B962B670BC704701230370F8E776
:107A70005446002000E100E0FC06FFBD094B9A6877
:107A80007AB170B910B4EFF3108172B6064A1C686F
:107A900014605C685460986001B962B65DF8044B8C
:107AA000704770475446002000E100E00346BAB139
:107AB0001088A1B1194401395A1E12F8013F40BA89
:107AC00080B24340C3F30310584080EA003000B254
:107AD000430103F4FF5358408A4280B2EDD170470E
:107AE0004FF6FF70E5E700BFF0B443681BB1384ABA
:107AF000D468A34246D20023364F0B807A684FF0F9
:107B0000010C02F580544FF6FF76083294420ED8ED
:107B1000BCF1020FA1F800C007F1140754D07A6835
:107B200002F58054083294424FF0020CF0D91368E9
:107B30000133EDD05388033302EB83039C42E7D338
:107B40009588B5420AD0158845B1956803689D426D
:107B500011D05388033302EB8302D7E79C42D7D975
:107B60001A6801321A46D3D05D88033503EB8503CA
:107B70009C42E5D2CCE7184B42601B89038101206F
:107B8000F0BC704712699342B5D813F00305B2D127
:107B9000114A048912899442ADD104689A689442CA
:107BA000A9D10C484268934203D902F5805293420E
:107BB00007D38269934207D902F58052934203D2D8
:107BC00001250D800120DBE70020F0BC704700BFDD
:107BD000642F0020E0360020C4360020F0B5334C7E
:107BE000334DB4F802C062684FEA8C0606EB0C0312
:107BF00005EB830383B0596801F58050002A52D009
:107C00005388033302EB8302904213D8664405EB9A
:107C10008605EB68002B3DD0264B274819680222C9
:107C20009A80052500230122257003B0BDE8F040AD
:107C300002F070B813680133E8D05388033302EBC5
:107C400083038342E2D84FF6FF7E9788774514D0AE
:107C5000178897B162605388164D1748AE88296817
:107C6000033300259BB200959B0001EB86010325A1
:107C7000257001F0B1FF03B0F0BD9842C6D91A6873
:107C800001321A46C2D05F88033703EB870398425C
:107C9000DBD2BBE7084804250122257003B0BDE80C
:107CA000F04002F037B801F10802ADE7C436002019
:107CB000E0360020A8370020642F00202DE9F04F87
:107CC000A74E8BB007464FF6FF7B3568002D00F0BE
:107CD000D3802A78531E052B65D8DFE803F0572F91
:107CE0002F1D1D03002F40F0BF80DFF89CC29CF8C1
:107CF0000C209CF80030002A00F04881013B8CF8F1
:107D00000C70062B4FD8DFE813F0DD03F802F20108
:107D1000C8014E00FB02DE02002F40F0A5802B7947
:107D2000012B00F04081C0F0D68005AC022B0597F6
:107D3000C4E9027727613CD138463BE0B5F814909E
:107D4000AB7D002F00F09F80022BEA8840F2BE80BE
:107D50004FEA8907DFF8288207EB090108EB810168
:107D6000D31C0A8913440B81EA884F4408EB870827
:107D700005ACB8F80A30033B9B1A0022A8F80A3079
:107D8000A2600592C4E90322012013E0002F40F015
:107D900093802B79032B00F2D880DFE813F0720177
:107DA00034014A015501002305ACC4E90333A36043
:107DB00005930F2006902B78023B042B0AD8DFE8AE
:107DC00003F0472F2303430004238DF81430EB887E
:107DD000ADF82030634D05F1100755F8043B2046FF
:107DE00003B19847AF42F8D15F4960480027376038
:107DF00001F0E8F901215E4801F0ACFA00287FF4B7
:107E000064AF0BB0BDE8F08F03238DF81430EB881E
:107E1000ADF820302B89ADF82230EB680793D9E715
:107E200002238DF814302B89ADF82030AB88ADF8E3
:107E30002230EB680793AB7DA3F10603B3FA83F31B
:107E40005B098DF82430C5E705238DF81430C1E7B0
:107E500001238DF814302B89ADF82030AB88ADF8B4
:107E60002230EB680793B5E705AC0023A3600593C8
:107E7000C4E9033301209DE73B493C4801F074F914
:107E80000546306025E74FEA8907DFF8F48007EB05
:107E9000090108EB8101B1F808A0496801EB8A0AE1
:107EA000062B00F2B582DFE813F0D501A001B20184
:107EB000C50136015F01780105AC2E4A00235360ED
:107EC0000593C4E902332361012073E7DFF8B08032
:107ED0004FEA890749E702232B71CDE9067705AC04
:107EE000EB68059320460DF11201FFF7FDFD002818
:107EF00000F0E1810699204A8B88EB800B882B816A
:107F00001E4800970423BDF8125001F065FE0028BA
:107F100040F0DD821A4B05EB850503EB8505012357
:107F20002B746EE701239A001A4408EB82030020A9
:107F300059680090082308F82200124A0F4801F0FF
:107F40004BFE00283FF45DAF35680A4A05AC0023BC
:107F500053600593C4E9023323610E202AE700BF72
:107F6000DC360020AC360020D436002094370020C8
:107F7000A4370020BC36002038800300642F002086
:107F8000E03600203C800300C4360020072B00F2BE
:107F90008382DFE813F0DC0181028102A701CA01BC
:107FA000980198011702B24B1B78002B00F07681E4
:107FB000DFF8C0E2BEF80490B9F1010F16D8DFF87F
:107FC000D88209EB890208EB82023846043212F8A3
:107FD000043C002B00F00A8209F1010399B2012947
:107FE0009946AEF8043002F11402F0D905AC08222B
:107FF0000021A0480FF04EFB0020A0600590C4E9CE
:1080000003003568D6E6DFF8908298F80030022B3E
:1080100000F0678298F81430022B83D0944B05ACA3
:10802000002001221A7005905860C4E90200206106
:10803000C0E6914A91481168002302242B71948074
:10804000012201F067FE7CE78B4C8D4A21688B484A
:10805000DFF8448200272F710823009701F0BCFD50
:10806000884B25685B88A18803EB830308EB8302B8
:1080700008F8237053682360022355601181A380A0
:108080005FE77D4B804A19687C4801232B710023F0
:108090000093082301F0A0FD53E7BCF80230DFF89D
:1080A000F88103EB830308EB8308D8F80C30002B2E
:1080B00000F0E381704B7148196802229A80052212
:1080C0008CF800200023012201F024FE00283FF458
:1080D00098AE05AC002341F61D5235682361C4E912
:1080E0000033C4E90233904208BF184662E6DCF868
:1080F00004206148538884880168604801EB84014A
:108100000333002400949BB203249B008CF80040AE
:1081100001F062FDDAE75D4BAA695D491A6000244F
:1081200018465C60FFF7E0FC002800F0D3810223D2
:10813000AB75042351460094EA18504801F04CFDF9
:1081400000283FF45EAEAB7DEA88022B4FF00E00B4
:1081500005AC40D84F4408EB8708B8F80A30033B19
:108160009B1AA8F80A30B5E7494B484A1C88516861
:108170004248484A00234FF0060C85F816C0009389
:10818000042301F029FD0028DDD104EB840408EB71
:108190008408012388F8103033E66B8902930022AB
:1081A000EB88039306215046FFF780FC0AAC039B43
:1081B00024F8140D0133990022460AF10800FFF754
:1081C00075FC029BEA888342AB7D14BF0D2041F60B
:1081D0001D50022BBED907EB090108EB8101D31C0E
:1081E0000A8913440B81EA88B4E7032A0CBF0523EC
:1081F00006230022AB750AF104010092042305F165
:1082000008021E4801F0E8FC00289CD1F9E52B6922
:108210001A48002B14BF032301230022AB750AF177
:1082200008010092042305F10C0201F0D5FC00289E
:1082300089D1E6E5EB882A6910480124AC75002451
:108240000AF10C019B00009401F0C6FC00283FF4E9
:10825000D8AD78E702230022AB7504230092514683
:10826000EA18064801F0B8FC00283FF4CAAD6AE7F6
:10827000BC360020B8370020A8370020642F00202B
:108280003C800300C436002044800300A036002058
:10829000B437002038800300E036002005AC082207
:1082A000394693480FF0F6F90597C4E9027727613C
:1082B000356802207EE50A200023C4E90033C4E9C2
:1082C0000233236176E58B4B8B4A19688B48002378
:1082D0000093CCF8043007238CF80030082301F019
:1082E0007BFCF3E6834ADCF8041093884988033367
:1082F0000B44022193808CF80010FFF76FFCE5E639
:10830000BCF80220DFF800829300134408EB8308D6
:1083100006200023D8F80410794A00938CF8000056
:108320000823764801F058FCD0E6BCF80220DFF8BC
:10833000D881704C9300991808EB810120684F6830
:10834000A5884860022027600D81A080DDE7DFF866
:10835000B881BCF8081098F8142098F80030B2FAE8
:1083600082F252090131B3FA83F35B098CF80B20D6
:10837000ACF80810002201218CF80A30ACF8022079
:108380008CF80C208CF8001043B1DFF87C81D8F811
:108390000C3000228CF80A20002B78D09CF80B308F
:1083A000B3B1DFF86481D8F8203000228CF80B20BC
:1083B00073B998F824305BB10123ACF80230FFF7B1
:1083C0000DFC83E601238CF800309CF80A30DBE7D3
:1083D00005AC0020A0608CF80000ACF80200CCF8DE
:1083E00004000590C4E903003568E3E41368DEF88F
:1083F000001003F5805C03F1080A002965D04B8862
:10840000033301EB83018C4506D8CEF80000E3E589
:10841000EA880F2005ACDEE60B680133F5D04B8807
:10842000033301EB83039C45EFD38C885C4517D065
:108430000F88AFB1EB88CEF80010A342DDD1002346
:108440000093304A2D48042301F0C6FB00284AD18E
:1084500009EB890908EB8908012388F81030D0E47A
:108460009C45D2D9196801311946CED05C880334B5
:1084700003EB84039C45D8D2C7E704228CF8002084
:10848000D8F804101D48012201F044FC1EE698F8BB
:108490001020002A82D090E7013B062B3FF683ACE8
:1084A00001A252F823F000BFC5840200FB82020043
:1084B000EF8002009B800200A77D02000183020082
:1084C000C78202009CF80A305EE751469BE7356898
:1084D0000E20F1E605AC0590C4E9020020610A20F7
:1084E00068E400231FE535680E2005ACE4E600BF14
:1084F000B8370020A837002044800300642F0020F4
:108500003C80030038800300E03600204068FFF71D
:10851000D5BB00BF38B5084B1A68042A0AD01D68BD
:10852000064C02460121184644F8252000F006FFBB
:10853000002038BD0C2038BDB0370020AC360020FC
:108540002DE9F04FAB4C8BB022780023CDE90533F9
:10855000CDE90733099372B1A74C04F1100554F823
:10856000043B05A803B19847A542F8D10025284649
:108570000BB0BDE8F08F201D02F0FF0600F0F6FE04
:1085800007460028F2D140F6F8731B685D1C00F026
:10859000FA804FF0805211695269DFF8848297495E
:1085A000C8F810304046A3F540530022C8F80C30FC
:1085B00001F0E4FA05460028D9D11C238C22904909
:1085C0009048DFF860A200F059FDD8F80C90DFF871
:1085D0005882029609F5405348464FF0030B2A464D
:1085E0009946002800F09D80036887498B4240F03F
:1085F0009880436885498B4200F0188101318B4295
:1086000040F08F80029B63B102EB820C08EB8C017F
:1086100002260132DAF8003008F82C6092B24B6082
:108620000E818168CAF800004FF0020C0131AAF8EF
:1086300004C000F5805300F108062DD041890331B4
:1086400006EB81008342C0F0B58060464FF6FF7EA6
:108650000192B6F804C0F4450FD0B6F800C0BCF1E2
:10866000000F0AD06A4AD6F808C01268944504D9A7
:10867000674AC2F800C071880331084480B2AAF882
:1086800004007188033106EB8106B34200F2868054
:108690000228019A40F0318104210F439945184680
:1086A0009FD1BBF1010F40F28B80FFB2022F00F08F
:1086B0008780062F00F08E80002F00F0818004A9B3
:1086C000504800F015FD1C22044600210EF0E2FF88
:1086D000002C00F010810123013F23700A2F09D8DC
:1086E000DFE807F0160816081C081C081906190010
:1086F0000223237104A9434800F026FD01214548C7
:1087000000F010FE00287FF431AFFFF7D7FA2EE714
:1087100000232371EEE703232371EBE70123237189
:10872000E8E700F58053014601E08B4214D00E6863
:10873000013601F10401F8D002EB820108EB810659
:108740000BF1FF3B01324FF0030C1FFA8BFB92B28F
:1087500008F821C07060A1E7DAF8001091B32E4E3E
:1087600002EB820108EB810C7280022602F1010EFD
:1087700008F821601FFA8EF2CCF80400ACF808600B
:1087800047F001078AE7254B4FF080521B681169BB
:108790005269581C08BF02FB01F3FEE63168013143
:1087A0003FF476AF7188033106EB810C6345BFF46B
:1087B00050AF019A4FF48061AAF8041008216CE7C9
:1087C0000B25D4E60221AAF804100121CAF8000002
:1087D0000291D5E7084D01220023227005F1100611
:1087E000636055F8043B05A803B19847AE42F8D141
:1087F000BCE600BFBC360020AC3600205882030027
:108800000837002094370020DEC0ADDEFE011EF1E7
:10881000D8360020A4370020C436002014100010E1
:10882000642F0020A8370020E03600209300039337
:10883000134408EB830C002108F823104FF00203C7
:10884000ACF80830CCF804008668013600F5805397
:1088500000F1080140D0408900F1030E01EB8E0EBB
:1088600073452FD302260192E646B1F804C04FF6B5
:10887000FF72944537D0B1F800C0BCF1000F32D080
:108880001F4AD1F808C01268944505D91C4ABEF8A1
:108890000860C2F800C0488806440336B6B2AEF895
:1088A00008604888033001EB80018B4219D90868C1
:1088B000013016D0488800F1030C01EB8C0C6345A5
:1088C000D3D2019A0399114408EB81014FF48060DF
:1088D0004FF001060E740881013292B247F0020790
:1088E000DCE6019AF8E74FF001028EF81020488884
:1088F000BEF80860D0E7082539E60821CDE600BFBC
:10890000D8360020002837D0002935D02DE9F04195
:1089100082B00C4601A90646FFF7E6F840B3756839
:10892000002206212846B5F806806F88FFF7BEF8BA
:1089300002AA791C22F8020D890005F10800FFF750
:10894000B5F880451AD1BDF804000E4B00EB80004D
:1089500003EB800001210C3000F0F0FC256073680F
:1089600001220C3300206360B27202B0BDE8F081D6
:108970000A2002B0BDE8F081052070470D2002B04A
:10898000BDE8F081E0360020E8B110B582B00DF10D
:1089900006010446FFF7A8F890B1BDF806300C4A6E
:1089A00003EB830302EB8303DA6872B1A27A62B14C
:1089B000DA680021013A0846DA60A17202B010BDFF
:1089C0000A2002B010BD05207047062002B010BD7D
:1089D000E03600202DE9F043594B83B01B7800228C
:1089E000ADF80220002B31D0002935D00A884FF68F
:1089F000FF739A4226D04B8823B34B689B072FD135
:108A0000B1F8088008F103039BB240F2FD329342B3
:108A100020D84C4A17783FB9558914892C441C44F6
:108A2000A4B2B4F5806F1FD3147D3CB9D58B948B61
:108A30002C441C44A4B2B4F5806F7ED3072003B04D
:108A4000BDE8F083042003B0BDE8F083022003B04A
:108A5000BDE8F0830920F6E7052003B0BDE8F08308
:108A6000032003B0BDE8F083BC464FEA8C09E14423
:108A700002EB89092B440C46064601A93248A9F8A5
:108A80000A3000F035FB1C22054600210EF002FEE4
:108A9000002D43D002234FF00009AF822B7085F8E0
:108AA000169063682B610121284800F047FCE860BC
:108AB00023882B816388AB804A460621A5F806806F
:108AC000281DFEF7F3FF02AF042127F8060D05F17C
:108AD0000C003A46FEF7EAFFA168ADF802008900F3
:108AE0003A466068FEF7E2FF01A90346688116482E
:108AF000ADF8023000F028FB46B1C6F80490EA68F1
:108B0000134B32601B8986F80A903381012111488A
:108B100000F008FC044660B1002094E7B9F80A3080
:108B2000C8F57F4808F1FD089844A9F80A80082094
:108B300089E7FFF7C3F8204685E70127BC4694E79D
:108B4000BC360020E036002094370020D8360020C4
:108B5000C4360020A437002000283BD02DE9F04780
:108B60005B4B82B01B780022ADF8022073B3002962
:108B700038D00A884FF6FF739A422FD04B886BB3D8
:108B80004B689B0728D1B1F8088008F103039BB21A
:108B900040F2FD32934227D84E4A17783FB95689A2
:108BA000148934441C44A4B2B4F5806F1ED3147DE0
:108BB00044B9D68B948B34441C44A4B2B4F5806F72
:108BC000C0F08380072002B0BDE8F087022002B029
:108BD000BDE8F087052070470320F8E7042002B0C5
:108BE000BDE8F0870520F2E70920F0E7BC464FEA30
:108BF0008C04644402EB84043344054689463648B9
:108C0000638101A900F074FA1C22064600210EF0CF
:108C100041FD002E4BD000240323B7823370B4757E
:108C2000D9F80430336101212C4800F087FBF06053
:108C3000B9F800303381B9F80230B3804FF0040A3C
:108C4000A6F8068086F816A02B68B3612246062196
:108C500006EB0A00FEF72AFF02AF514627F8060D81
:108C600006F10C003A46FEF721FFD9F80810ADF8DE
:108C700002003A468900D9F80400FEF717FF0DEB11
:108C80000A01034670811448ADF8023000F05CFA26
:108C90006C60F268124B2A601B89AC722B81012137
:108CA000104800F03FFB054658B120468FE7638926
:108CB000C8F57F4808F1FD089844A4F80A80082008
:108CC00085E7FEF7FBFF284681E70127BC468EE7D4
:108CD000BC360020E036002094370020D836002033
:108CE000C4360020A4370020184B1B7823B34FF65E
:108CF000FF7398421ED070B582B001A90446144893
:108D000000F0F6F91C22054600210EF0C3FCADB1BF
:108D100005230126EC8001A92B702E710C4800F070
:108D200013FA31460B4800F0FDFA044648B1002022
:108D300002B070BD0420704702207047082002B0C6
:108D400070BDFEF7BBFF204602B070BDBC360020F0
:108D500094370020A4370020194B1B78EBB110B5D5
:108D600082B001A9174800F0C3F91C220446002173
:108D70000EF090FC0CB30623237001A9114800F0FB
:108D8000E3F9114B1A7852B90121104800F0CAFAE0
:108D9000044668B1002002B010BD022070470122D5
:108DA00001210A481A7300F0BDFA04460028F1D1E7
:108DB000FEF784FF204602B010BD082002B010BDAF
:108DC000BC36002094370020C4360020A437002091
:108DD0002DE9F043344C2478002C60D03AB333B3FF
:108DE0009F88012F5ED8314C07EB870C013704EBCD
:108DF0008C0CBFB24FF6FF7E4FF000089CF800408D
:108E000074B91C68DCF8045005F58056002C43D07A
:108E10006588033504EB8504B4420BD3C3F80080A6
:108E2000022F9F800CF1140C3CD00227E6E70520AE
:108E3000BDE8F08325680135F0D06588033504EB83
:108E40008505AE42EAD3B4F80490F14515D0B4F8E4
:108E50000090B9F1000F10D01C60A5888542D1D1D7
:108E600025888D42CED1A16811601968104B5160E0
:108E70001B8913810020BDE8F083AE42CED92C6857
:108E800001342C46CAD0B5F8029009F1030905EB6C
:108E90008905AE42D7D2C1E705F10804BCE702203C
:108EA000BDE8F0830A20C3E7BC360020E03600208E
:108EB000C4360020334B1B78002B5CD051B34AB32F
:108EC0002DE9F0419588012D5AD82F4F05EB8503E8
:108ED00007EB830701353B78ADB24FF6FF7C4FF0CF
:108EE000000E43B1022D958007F1140748D03B785E
:108EF0000225002BF6D113687C6804F58056002B00
:108F00003BD05C88033403EB8403B34204D3C2F840
:108F100000E0E7E7052070471C680134F7D05C8863
:108F2000033403EB8404A642F1D3B3F80480E04594
:108F300012D0B3F80080B8F1000F0DD013601C8878
:108F40008442D9D19B680B601268104B4A601B8920
:108F50000B810020BDE8F081A642D8D923680133F7
:108F60002346D4D0B4F8028008F1030804EB880447
:108F7000A642DAD2CBE70220704704F10803C4E727
:108F80000A20E7E7BC360020E0360020C436002087
:108F9000334B1B78002B5CD051B34AB32DE9F04121
:108FA0009588012D5AD82F4F05EB850307EB8307D2
:108FB00001353B78ADB24FF6FF7C4FF0000E43B168
:108FC000022D958007F1140748D03B780225002B2D
:108FD000F6D113687C6804F58056002B3BD05C8882
:108FE000033403EB8403B34204D3C2F800E0E7E7A1
:108FF000052070471C680134F7D05C88033403EB0C
:109000008404A642F1D3B3F80480E04512D0B3F84B
:109010000080B8F1000F0DD013609C888442D9D134
:109020009B680B601268104B4A601B890B81002003
:10903000BDE8F081A642D8D9236801332346D4D0B5
:10904000B4F8028008F1030804EB8804A642DAD2DF
:10905000CBE70220704704F10803C4E70A20E7E7E2
:10906000BC360020E0360020C436002020B119B103
:1090700003680B60002070470520704799B110B459
:10908000B2FBF3F403FB1424A4B244B9C0E9001406
:1090900084608281C38120465DF8044B70470920BB
:1090A0005DF8044B70470E20704700BF82B050E857
:1090B000022FC188B2EB324F4FF0000317BF92B2BC
:1090C00041EA014142EA014104E04268B2EB324F19
:1090D00008BF012340E80212002AE8D18DF80730CA
:1090E0009DF80730002B0CBF1120002002B0704704
:1090F00030B482B050E8013F9DB2C48925448489D0
:10910000A54228BF2D1B0489A54202BFBFF32F8FA4
:10911000002207E0C5EA030540E80154002CE9D12C
:109120004FF001028DF803200193019B9DF803206D
:109130000B602AB10B880068184402B030BC70473D
:1091400002F0FF031846F8E70A884B889A4201D0DC
:109150000020704750E8012FC2EA024240E8012394
:10916000002BF7D10120704730B482B050E8023FA5
:109170001FFAA3F5C488A54202BFBFF32F8F0022B8
:109180000DE0C48925448489A54228BF2D1BC3EA6C
:10919000054540E80254002CE8D14FF001028DF85B
:1091A00003200193019B9DF803200B602AB14B889B
:1091B0000068184402B030BC704702F0FF03184644
:1091C000F8E700BF0A884B889A4201D00020704718
:1091D00050E8022FC2EA224240E80223002BF7D1D6
:1091E0000120704701F01F024B09012100EB8300B1
:1091F000914000F07FB800BF10B5012301F01F04BB
:10920000490900EB810003FA04F100F067F8E0403F
:1092100000F0010010BD00BF01F01F020123490949
:10922000934000EB8100D94300F070B84B0901F086
:109230001F0150F82300C84000F00100704700BF34
:109240002DE9F84F01F1FF394FEA591300F10409F4
:109250000F46064609EB8309044600254FF0010836
:1092600023686FEA030B9BFAABFBBBFA8BFBBBF1EA
:10927000200F20D0AB445F450CD81CE02368DB43B3
:1092800093FAA3F3B3FA83F3202B05EB030B12D06D
:109290005F4510D90BF01F0A4FEA5B1008FA0AF17C
:1092A00006EB800000F01AF820FA0AF0C307E5D4B4
:1092B0005846BDE8F88F04344C4505F12005CFD160
:1092C000BB465846BDE8F88F50E8002F0B4640E8F3
:1092D000003C9CF0000FF7D11046704750E8002F7B
:1092E00042EA010340E8003C9CF0000FF6D1104632
:1092F000704700BF50E8003F43EA010240E8002CFD
:109300009CF0000FF6D11046704700BF50E8003FB8
:1093100003EA010240E8002C9CF0000FF6D1104651
:10932000704700BF50E8002F02EB010340E8003C0B
:109330009CF0000FF6D11046704700BF50E8003F88
:1093400003EB010240E8002C9CF0000FF6D1104620
:10935000704700BF50E8003FA3EB010240E8002C3B
:109360009CF0000FF6D11046704700BF012350E873
:1093700000CF4CEA030240E8002191F0000FF6D143
:1093800060467047012350E8002F42EA030C40E892
:1093900000C191F0000FF6D160467047002350E8FD
:1093A00000CF0CEA030240E8002191F0000FF6D153
:1093B00060467047B8B130B4D0E90112521A04685F
:1093C000D2B2531E2160DBB242B101680A685C1E52
:1093D000551C0D601370E3B2FF2BF6D1036800201B
:1093E000187130BC70470E20704700BFF0B583B0D5
:1093F00002AB002503F8015D04461846FEF718FB92
:10940000D4E900311A688A4210D9511E19602168C6
:10941000A3680F6812F8015C0A79268AE068DB1BF2
:10942000DBB29A4206FB050538BF0B719DF80700B9
:10943000FEF724FB284603B0F0BD00BF30B583B073
:1094400002AB002203F8012D054618460C46FEF734
:10945000EFFA2A681368591C1160E9682A8A641AAD
:10946000B4FBF2F41C709DF80700FEF707FB03B095
:1094700030BD00BF826842B110B50446436901683F
:10948000006998470023A36010BD70470EB400B573
:1094900082B0039929B102AA04AB42F8043D00F05E
:1094A0008BF802B05DF804EB03B070472DE9F84F7C
:1094B00088469045174605461E46DDE90AB175D334
:1094C00043464FF00109B3FBF7F39F4209F101094D
:1094D000F9D9B14538BFB14611F0010AAA6802D1E5
:1094E000BBF1000F43D1012402E0013E07FB04F46D
:1094F000012EFAD8B8FBF4F18F42F7D92D4E05E0D2
:10950000B4FBF7F4A4B1B8FBF4F1AA68705C531C87
:10951000AB602B689854D5E901329A4204FB11885C
:10952000EED32846FFF7A6FFB4FBF7F4002CEAD1F0
:10953000BAF1000F15D0BBF1000F12D0CB4510D9F6
:109540002024AB682A68591CA960D454D5E901329B
:109550009A420BF1FF3B06D2BBF1000F01D0CB4585
:10956000EFD1BDE8F88F2846FFF784FFF4E78B07BB
:1095700017D42024CB45B6D92B68511CA9609C5424
:10958000D5E901329A420BF1FF3B05D2BBF1000F46
:10959000A9D0CB45F0D1A6E72846FFF76BFFAA6814
:1095A000F4E7002E0CBF30242024E3E74FF001093C
:1095B0008FE700BF4C800300002900F0F4812DE903
:1095C000F04F054685B092460C460B78DFF8A8B5FB
:1095D00001E0237893B1013483B1252B15D0AA681B
:1095E0002968501CA8608B54D5E901329A42F0D307
:1095F0002846FFF73FFF2378002BECD12B7B002B75
:1096000040F0148105B0BDE8F08F2146002711F825
:10961000012B2D2A00F0E180302A00F0E2802B2A75
:1096200000F0D2802A2A00F0E080A2F13006F3B2E6
:10963000092B03D9B8E1A3F130060146084606EB31
:10964000860310F8012BA2F13004092C02EB43032E
:10965000F1D92E2A00F0D5800023013101E011F864
:10966000012B02F0FB0068280C46F8D0253A532A5B
:10967000AFD801A151F822F039980200D395020029
:10968000D3950200D3950200D3950200D395020032
:10969000D3950200D3950200D3950200D395020022
:1096A000D3950200D3950200D3950200D395020012
:1096B000D3950200D3950200D3950200D395020002
:1096C000D3950200D3950200D3950200D3950200F2
:1096D000D3950200D3950200D3950200D3950200E2
:1096E000D3950200D3950200D3950200D3950200D2
:1096F000D3950200D3950200D3950200D3950200C2
:10970000D3950200D3950200D3950200D3950200B1
:10971000D3950200D3950200D3950200D3950200A1
:10972000D3950200D3950200D3950200D395020091
:10973000D3950200D3950200D3950200D395020081
:10974000D395020053980200D3950200D3950200EE
:10975000D3950200D3950200D3950200D395020061
:10976000D3950200D3950200D3950200D395020051
:109770006D9802008F980200D3950200D3950200E5
:10978000D3950200D39502008F980200D395020072
:10979000D3950200D3950200D3950200D395020021
:1097A000D3950200DF980200D3950200D395020002
:1097B00053990200D39502008D990200D3950200BF
:1097C000D39502005398020047F004070C46214647
:1097D00011F8012B2D2A7FF41FAF47F001070C462B
:1097E000F5E747F002070C46F1E7DAF800301A1DFA
:1097F000CAF8002062781E682E2A04F102007FF465
:109800002BAF4A78A2F13003092B00F250810023DC
:1098100003EB830302EB430310F8012FA2F13001A5
:109820000929A3F13003F3D9014616E7284605B00C
:10983000BDE8F04FFFF71EBEAB682A68591CA9604F
:109840004FF02501D154D5E901329A42FFF4C1AE5F
:10985000CEE6DAF80020111DCAF80010116828467B
:10986000CDE900671022FFF721FEB2E6DAF800200A
:10987000131DCAF80030AB6829681278581CA8601C
:10988000CA54D5E901329A42FFF4A3AEB0E6DAF841
:109890000020111DCAF80010D2F8008088EAE87292
:1098A000A2EBE872092A4FF0010107DDB148A0FBE5
:1098B0000202D208092A01F10101F7DC994238BFFE
:1098C0001946894607F00202002E71D12AB1002BF9
:1098D00000F04B81FA0700F18D8000268AE0DAF86B
:1098E0000020131DCAF80030AB6829681768581C9F
:1098F0003022A860CA54D5E90123934280F02C811C
:109900002A68581C7821A860D154D5E901239342D4
:1099100080F01D810F2F03D93A4612090F2AFCD877
:109920004FF0805603E036093FF453AEAB68296828
:10993000B7FBF6F2581CA8601BF80200C854D5E922
:109940000131994206FB1277EDD32846FFF792FDCD
:10995000E9E7DAF800301A1DCAF80020D3F80080D1
:10996000FB077ED54746A7EB080917F8013B002BFC
:109970005DD0AA682968501CA8608B54D5E90132D3
:109980009A42F0D32846FFF775FDECE7DAF800209D
:10999000111DCAF8001011682846CDE900670A2297
:1099A000FFF784FD15E6704708460026214650E67D
:1099B000B8F1000F01DB780700D5013E02B1CBB151
:1099C000F90717D4002E88D0B14513D22022039373
:1099D000A9682B68481CA8605A54D5E901319942FE
:1099E00006F1FF365DD2002E00F0C180B145EFD107
:1099F000039B4E46B8F1000FC0F296807A070AD555
:109A0000A9684A1CAA602A682B205054D5E9012174
:109A1000914280F0968007F00302022A5FD0CDE9E0
:109A2000006741460A222846FFF740FDD1E54E4532
:109A30007FF6CFAD202705E04E453FF4CAAD002E9E
:109A40003FF4C7ADAB682A68591CA960D754D5E963
:109A500001329A4206F1FF36EED32846FFF70AFD9F
:109A6000EAE7B8F1000F24D040460DF01BFE074690
:109A7000BE4220D9FEB14FF0200902E0BE421AD00A
:109A8000CEB1AB682A68591CA96002F80390D5E9E9
:109A900001329A4206F1FF36F0D32846FFF7EAFC7E
:109AA000ECE728460292FFF7E5FC029A9BE70146A5
:109AB000D2E54746DCE708F1FF3818F8013F002BF4
:109AC0003FF487ADAA682968501CA8608B54D5E97B
:109AD00001329A42F1D32846FFF7CCFCEDE7002B88
:109AE0009DD1002E3FD0B14599D2029323464C46DA
:109AF000B1461E46AA682B68501C4FF03001A86082
:109B00009954D5E901329A4209F1FF3908D2B9F1E5
:109B1000000F26D04C45EDD13446029B4E467EE7E1
:109B20002846FFF7A7FCF2E7A9684A1CAA602A6842
:109B30002D205054D5E901219142C8F10008FFF4CD
:109B40006AAF28460293FFF795FC029B63E728461D
:109B5000FFF790FCAB68DDE62846FFF78BFCAB68AF
:109B6000CEE6029B3446002659E71E4642E7039B99
:109B7000B3E600BFCDCCCCCC4C80030010B582B096
:109B800038B1B9B101600B68114602B0BDE81040B0
:109B900018470B480B4C0C4B0C4A0D49001BC008D6
:109BA0000E24000440F001000094FDF727F80E2079
:109BB00002B010BD0248034C034B064AEDE700BF5C
:109BC000B4AE030064AE03005C80030010810300A8
:109BD00018810300448103002DE9F04182B0002880
:109BE00054D0002A64D0D0F800C0BCF1000F69D076
:109BF0001C46002B33D04768D7F80480B3FBF8F736
:109C000008FB1737002F3CD18F0723D112F0030F29
:109C100053D1C768B94211D23248334C334B344A1E
:109C20003449001BC0081024000440F001000094D7
:109C3000FCF7E4FF204602B0BDE8F0814E1E056946
:109C40003444AC42E8D8DCF80C40A44602B0BDE88D
:109C5000F04160472348244C244B274AE0E7214841
:109C6000214C224B254A2349001BC008092400042B
:109C700040F001000094FCF7C1FF204602B0BDE8AF
:109C8000F0811848184C194B1D4AECE71548164C42
:109C9000164B1C4A1749001BC0080E24000440F054
:109CA00001000094FCF7AAFF204602B0BDE8F08155
:109CB0000C480D4C0D4B144AECE70A480A4C0B4B70
:109CC000124AADE7084C0748084B114A0949001BE6
:109CD000C0080824000440F001000094FCF78EFF47
:109CE0002046A8E7B4AE030064AE03007080030012
:109CF0001482030018810300D881030054810300FB
:109D0000AC81030010810300A4810300F0810300F3
:109D100098810300F0B583B0002843D0D0F800C08C
:109D2000BCF1000F4ED03AB34768D7F800E00EF10F
:109D3000FF370F4231D1C768B94210D229482A4CA7
:109D40002A4B2B4A2B49001BC0081024000440F06A
:109D500001000094FCF752FF204603B0F0BD4D1EF9
:109D600004690EFB0255A542E8D8DCF81040A44671
:109D700003B0BDE8F04060471B4C1A481B4B1E4A1D
:109D80001C49001BC0080924000440F00100009495
:109D9000FCF734FF204603B0F0BD1248124C134BC1
:109DA000164ACFE7104C0F48104B154A1149001BBB
:109DB000C0080E24000440F001000094FCF71EFFD0
:109DC0002046CAE7084C0748084B0E4A0949001BC1
:109DD000C0080824000440F001000094FCF70EFFC6
:109DE0002046BAE7B4AE030064AE030084800300EB
:109DF000C080030018810300548103009880030091
:109E0000108103009881030029DF704728DF704725
:109E10000846704700207047024B187A003018BF80
:109E2000012070475C380020034B187A0122B0FAF9
:109E300080F05A74400970475C38002008B510461D
:109E40001A460DF01CFC002008BD00BF08B5142206
:109E5000002104480DF01EFC0348FFF727F90020FD
:109E600008BD00BF5C3800204C38002010B5094CFC
:109E7000094B43602046FFF779FA40B90BF0F6FC36
:109E80001C2320748C2205490548FFF7F7F80020B1
:109E900010BD00BF5C3800204C820300C03700209A
:109EA0004C38002030B55E4C237A87B0002B3AD076
:109EB0005C4B1B68022222721A79002A3ED0012ACA
:109EC0000CD1D3E903021044FFF7A0FF002849D0CA
:109ED000112803D10123237207B030BD19688A68A5
:109EE000C2B1002268460092C0E902220325026145
:109EF00001959A6805921A79002A4BD0012A07D158
:109F000002228DF80020DA68120302925B69049342
:109F10008B68984700234449444823726360FFF7E5
:109F200051F907B030BD40494048FFF71DF93D4A9F
:109F3000034610600028BDD16060F2E7D3E9052533
:109F4000521BB2F5805F28BF4FF48052D3E9031053
:109F50009208012A38BF012229442844FFF754FF00
:109F60000028B5D1227C002ADBD1227A002AD8D061
:109F7000022A0AD1E0601A79DAB1012A05D1D3E9BF
:109F8000042101328A421A611FD0637C73B10BF045
:109F90005DFCC6E701228DF800201A690292DA689A
:109FA00003925B6904938B689847B3E7FFF77AFFE6
:109FB000B7E7D3E90512881AB0F5805F94BF12188D
:109FC00002F5805291429A61DFD100222272196813
:109FD0008868A8B168460092C0E90122C0E903225E
:109FE0009A6805921A7982B1012A07D102228DF866
:109FF0000020DA68120302925B6904938B68984729
:10A0000009490A48FFF7DEF8BFE701228DF8002072
:10A010001A690292DA6803925B690493EEE700BF63
:10A020005C38002074380020703800204C38002044
:10A030002DE9F04782B082468946174801A990462B
:10A040001F46FFF755F810B3044600211C220D46A9
:10A05000124E0DF01FFB0A9BC4F800A0A360C4E9D8
:10A060000389676101A925710B48FFF76DF8301D61
:10A07000FFF77CF938B9747C34B9FFF713FF204639
:10A0800002B0BDE8F087284602B0BDE8F0870420A2
:10A0900002B0BDE8F08700BF4C3800205C380020DB
:10A0A0002DE9F04383B081460D46164801A91746B5
:10A0B0009846FFF71DF808B304461C2200210DF056
:10A0C000E9FA114EC4F8009001232D0BC4E9028572
:10A0D000676101A923710B48FFF736F8301DFFF7C0
:10A0E00045F938B9747C34B9FFF7DCFE204603B07B
:10A0F000BDE8F083002003B0BDE8F083042003B086
:10A10000BDE8F0834C3800205C38002000F0FD03EF
:10A11000012B00D0704730B5604CA0F10100B0FABF
:10A1200080F0237A4009002287B020746274002BEB
:10A130003AD05B4B1B68022222721A79002A3ED069
:10A14000012A0CD1D3E903021044FFF75FFE002877
:10A1500049D0112803D10123237207B030BD1968FB
:10A160008A68C2B1002268460092C0E90222032533
:10A17000026101959A6805921A79002A4BD0012A4A
:10A1800007D102228DF80020DA68120302925B697F
:10A1900004938B68984700234249434823726360C5
:10A1A000FFF710F807B030BD3E493F48FEF7DCFF2F
:10A1B0003B4A034610600028BDD16060F2E7D3E956
:10A1C0000525521BB2F5805F28BF4FF48052D3E9BA
:10A1D00003109208012A38BF012229442844FFF7BE
:10A1E00013FE0028B5D1227C002ADBD1227A002A76
:10A1F000D8D0022A0AD1E0601A79CAB1012A05D161
:10A20000D3E9042101328A421A611DD0637C63B113
:10A210000BF01CFBC6E701228DF800201A690292A0
:10A22000DA6803925B690493B3E7FFF73BFEB9E793
:10A23000D3E90512881AB0F5805F94BF121802F5B1
:10A24000805291429A61E1D1002222721968886895
:10A25000A8B168460092C0E90122C0E903229A68C9
:10A2600005921A7982B1012A07D102228DF80020C5
:10A27000DA68120302925B6904938B689847094974
:10A280000948FEF79FFFC1E701228DF800201A69F7
:10A290000292DA6803925B690493EEE75C3800206F
:10A2A00074380020703800204C380020831E012BA9
:10A2B00000D9704730B58E4C237A87B0002B31D04F
:10A2C000022B2BD103286BD1E3680133082B79D9FA
:10A2D000884B00221B68E26022720D2519688A688B
:10A2E000C2B1002268460092C0E9022202610195D3
:10A2F0009A6805921A79002A00F0B980012A07D1DC
:10A3000002228DF80020DA68120302925B6904933E
:10A310008B68984778497948FEF754FF637C1BB1F6
:10A320000BF094FA07B030BD237A002B5BD0714B51
:10A330001B68022222721A79002A5FD0012A0BD1EF
:10A34000D3E903021044FFF761FD002869D011280A
:10A3500002D101232372E5E719688A68C2B100229D
:10A3600068460092C0E902220325026101959A68BD
:10A3700005921A79002A70D0012A07D102228DF89D
:10A380000020DA68120302925B6904938B68984795
:10A3900000235949594823726360FEF713FFC1E750
:10A3A000544B00221B68E2601A796AB1012AB5D1C8
:10A3B000D3E9042101328A421A6111D0637C002B57
:10A3C000AED1B4E7E360F9E7D3E90512881AB0F536
:10A3D000805F94BF121802F5805291429A61EDD1CC
:10A3E000002525727AE744494448FEF7BDFE414AFC
:10A3F0000346106000289CD1606093E7D3E90525EF
:10A40000521BB2F5805FD3E9031028BF4FF480528E
:10A410009208012A38BF012229442844FFF7F4FC9E
:10A4200093E7227C002A7FF47DAF227A002A3FF452
:10A4300079AF022A0AD1E0601A7912B3012A05D154
:10A44000D3E9042101328A421A6126D0637C002BB1
:10A450007FF466AFFFF726FD64E701228DF8002048
:10A460001A690292DA6803925B6904938EE701220B
:10A470008DF800201A690292DA6803925B690493EE
:10A4800046E7D3E90512881AB0F5805F94BF121829
:10A4900002F5805291429A61D8D100222272196845
:10A4A0008868A8B168460092C0E90122C0E9032289
:10A4B0009A6805921A7982B1012A07D102228DF891
:10A4C0000020DA68120302925B6904938B68984754
:10A4D00009490A48FEF776FEB8E701228DF8002008
:10A4E0001A690292DA6803925B690493EEE700BF8F
:10A4F0005C38002074380020703800204C38002070
:10A50000FEF758BF2DE9F041058ACE1C043D2E44CC
:10A510000746B6FBF5F6FEF769FF78B3F6B24FF4DF
:10A520008073013E0446C5800760838027D0804643
:10A53000002509E06379AE4203F101036371C8F8B5
:10A540000000076080461AD03846FEF74FFF0135FD
:10A550000028EFD16679721E14D023460130824262
:10A560001B68FBD11F684EB10025236821460135C9
:10A5700038461C46FEF762FFAE42F6D10024204664
:10A58000BDE8F0812768EFE704300121FEF7D6BE71
:10A59000F8B5012104460430FEF7DCFEC0B200B17C
:10A5A000F8BD6679721E12D02346013082421B68C4
:10A5B000FBD11F68002EF3D000252368214601350A
:10A5C00038461C46FEF73AFFAE42F6D1F8BD276882
:10A5D000F2E700BF2DE9F843C788467907FB06F686
:10A5E000043E02EB030C0446664503F104001546E5
:10A5F0008846B0FBF7F238BFF51A07FB120012B11C
:10A60000013A2468FCD13E1AAE4228BF2E469DB1C5
:10A610004FF000090430AD1B2044324608EB09011D
:10A620000DF02DF8AF42B14424683E464FF00000D3
:10A6300028BF2E46002DEDD1BDE8F8832DE9F84363
:10A64000C7884679154607FB06F6043E05EB030C62
:10A650001A1D664504468846B2FBF7F038BFF51A66
:10A6600007FB102110B101382468FCD17E1AAE42DC
:10A6700028BF2E469DB14FF0000904312144AD1B87
:10A68000324608EB09000CF0FAFFAF42B1442468EF
:10A690003E464FF0000128BF2E46002DEDD1BDE80B
:10A6A000F88300BF41DF7047064A074B10B500240E
:10A6B00014701C60BFF35F8F0449054800F040F838
:10A6C000204610BD803800208438002078820300A6
:10A6D0007838002000B583B002A8002300F8013DBF
:10A6E000FDF7A6F9F1EE103A23F09F03E1EE103AE0
:10A6F000BFF35F8F0A4B4022C3F884219DF8070007
:10A70000FDF7BCF90BF0B2F828B920BF40BF20BF5D
:10A7100003B05DF804FBFFF7C5FF03B05DF804FB71
:10A7200000E100E082680023936082681361826820
:10A7300053618268D3608268536082681360704797
:10A7400001600B6843604A68934204BF0023436082
:10A75000704700BF436843B1026891680B4443608F
:10A760005268934204BF00234360704730B4184DD1
:10A77000A5F59472AB1ADB1003EBD3735B1002EBFD
:10A78000C30152F83330984228BF0C4605D311E07C
:10A7900052F8333098420CD221468B1ADB1003EB6F
:10A7A000D3735B108A4202EBC304F1D3094830BC77
:10A7B00070470D46984204D904F10802AA42D9D341
:10A7C000F4E76068034B002808BF1846EFE700BFB6
:10A7D000CC8303009082030030B4904B1B78062B8F
:10A7E00020D08F4B1B68062B00F085808D4AD2F855
:10A7F000883043F47003C2F88830BFF34F8FBFF343
:10A800006F8F4FF01023D3F80022002AC0F2868108
:10A81000D3F80432002BC0F28181834B834A1A6043
:10A8200030BC7047824B1B681D07DAD1814B1B6817
:10A8300003F0F002302A00F09E8003F0E003402B8A
:10A8400000F099807B4B1B6803F0F003302B00F085
:10A85000B980784B1B6803F0F002302A56D003F021
:10A86000E003402B52D0734B1B6803F0F003302BF6
:10A8700000F0B6806F4B1B6803F0F002302A66D000
:10A8800003F0E003402B62D06A4B1B6803F0F00337
:10A89000302B00F0B580674B1B6803F0F003302BC2
:10A8A00079D0644B1B6803F0F003502B00F0E48078
:10A8B000604B1B6803F0F002302A37D003F0E0034E
:10A8C000402B33D05B4B1B6803F0F002302A03D0DF
:10A8D00003F0E003402B84D14FF08043D3F80024F1
:10A8E000D20744BF6FF00102C3F800244C4B1B6831
:10A8F000062B7FF47BAF504B1B68062B7FF476AFA3
:10A900004E4A136843F4806313606FE74C4B434A2D
:10A910001B6812784B49C3F34233062A0B6048D1B7
:10A92000434B1B6819077FF45CAF9CE7464A3B4BDF
:10A9300012681B78454902F04F02062B0A607FF42B
:10A9400050AF3B4B1B6819077FF44BAFBAE74FF092
:10A9500080430022C3F80C21C3F81021C3F8382526
:10A960002E4B1B78062B7FF43CAF314B1B681B072B
:10A970007FF437AF88E7364B284A1B681278354991
:10A98000C3F30423062A0B60EAD1294B1B681C077A
:10A990007FF427AF56E7304C204A304912783048D0
:10A9A000304B0525256001250D6000243F21046002
:10A9B0001960062A7FF415AF1D4B1B681C077FF436
:10A9C00010AF6EE7154B284A1B7828491160062BFB
:10A9D0007FF407AF164B1B6818077FF402AF38E708
:10A9E00023490E4BCA681B7822F08072062BCA607E
:10A9F0007FF4F7AE0E4B1B681A077FF4F2AE39E70F
:10AA0000064B1C4A1B780321062B11607FF4E9AE2C
:10AA1000074B1B681D077FF4E4AE3CE7E00F00F036
:10AA20003001001000ED00E0AC2800200090D003C1
:10AA3000E40F00F0E80F00F0340100103C17004074
:10AA4000440200103C05004058020010E40E004093
:10AA50002403001040350140105600408856004045
:10AA6000185600401456004074C007400DF0ADBAAF
:10AA7000F0ED00E0A00500404FF08053404AD3F8CD
:10AA80000414C2F82015D3F80814C2F82415D3F81A
:10AA90000C14C2F82815D3F81014C2F82C15D3F8EA
:10AAA0001414C2F83015D3F81814C2F83415D3F8BA
:10AAB0001C14C2F84015D3F82014C2F84415D3F87A
:10AAC0002414C2F84815D3F82814C2F84C15D3F84A
:10AAD0002C14C2F85015D3F83014C2F85415D3F81A
:10AAE0003414C2F86015D3F83814C2F86415D3F8DA
:10AAF0003C14C2F86815D3F840142248C2F86C150B
:10AB0000D3F844140378C2F87015062B7FF469AEAD
:10AB10001D4B1B6818077FF464AEC9E61B4B01226E
:10AB2000C3F80425D3F80024002AFBD04FF01023EB
:10AB300015221649C3F80022D1F80034002BFBD0AF
:10AB40004FF010221521114BC2F80412D3F8002443
:10AB5000002AFBD000220D49C3F80425D1F80034A7
:10AB6000002BFBD0BFF34F8F09490A4BCA6802F490
:10AB7000E0621343CB60BFF34F8F00BFFDE700BF20
:10AB800000C00040E00F00F0E40F00F000E00140E2
:10AB900000ED00E00400FA0510B570B101280BD1FA
:10ABA0000D4C2369A0703BB1D3E900230120226141
:10ABB00098472369002BF7D110BD074CA3680122E9
:10ABC0006270002BF8D0D3E900230020A2609847E0
:10ABD000A368002BF7D1EFE78838002070B910B5D3
:10ABE000074CA368012262703BB1D3E90023002027
:10ABF000A2609847A368002BF7D110BD704700BF33
:10AC00008838002030B5012883B01CD015D3032824
:10AC100011D100F0C9F802A800231F4C00F8013D33
:10AC2000FCF706FFE368013BE360E56865B39DF868
:10AC30000700FCF723FF03B030BD184B0122C3F817
:10AC4000802003B030BD02A80023134C00F8013D62
:10AC5000FCF7EEFE237853B1E3689DF8070001335B
:10AC60000122E360A270FCF709FF03B030BD0C487D
:10AC70006360A3602361E36000F088F80AF0F6FDEA
:10AC800030B101232370E7E700F0A0F8A570CEE70C
:10AC900000F08AF8F5E700BF8838002000E100E006
:10ACA00099AB020030B585B0047845688DF8004056
:10ACB000D0E90240064A074B039053F82130019532
:10ACC0008DF8084052F821106846984705B030BD0D
:10ACD0009C380020A038002030B585B00478456845
:10ACE0008DF80040D0E90240064A074B039053F824
:10ACF000213001958DF8084052F821106846984798
:10AD000005B030BD9C380020A0380020F0B51A4BAB
:10AD100006781A4D0C6991F81DE045F82640074663
:10AD2000174803F806E040F826200C4694460FCC5E
:10AD300089B06D460FC594E80F0085E80F000496B2
:10AD4000BEF1000F0BD0BCF1000F0E4A694607F1AF
:10AD5000040008BF002201F015F809B0F0BDBCF1F5
:10AD6000000F094A694607F10C0008BF002200F0F5
:10AD7000E5FD09B0F0BD00BF604600209C38002012
:10AD8000A0380020A5AC0200D9AC0200054A137916
:10AD90002BB901211060537118461171704785203D
:10ADA000704700BFA4380020074B1A68D20704D4AC
:10ADB000C021012283F800131A604FF08043012262
:10ADC000C3F81825704700BF00E100E0044B0122E2
:10ADD0001A604FF08042D2F81834DB03FBD470477E
:10ADE0000C00004010B5154B1A6882B07AB10021F2
:10ADF000134A19601B68507900934FF0804101237A
:10AE0000009CC1F8083310B91168537188470D4B85
:10AE10001A6882B100221A601B6801934FF08042C9
:10AE20000221074B0198C2F808131B68012002B0E9
:10AE3000BDE81040184702B010BD00BF000100403F
:10AE4000A43800200401004030B51D4C94F858503F
:10AE500083B095BB4FF0FF332946042204F1540020
:10AE6000C4E90033C4E90233C4E90433C4E9063356
:10AE7000C4E90833C4E90A33C4E90C33C4E90E3326
:10AE8000C4E91033C4E9123323650CF003FC0D4A06
:10AE90000D4B0E491D60C02082F806034020106053
:10AEA0001B68019301984FF000430122284684F863
:10AEB0005820C1F8043303B030BD082003B030BDC2
:10AEC000AC38002000E100E07C6100400060004000
:10AED000034B93F85800003018BF0120704700BFA3
:10AEE000AC380020F0B56C4B1C1894F93050002D94
:10AEF00068DA8E78C6F340069646002E5CD11D6A4D
:10AF0000013500F0B58009240C2553F82470013771
:10AF10005BD004F1010C53F82C70013700F0B380C2
:10AF2000A71CAF4246D253F82720013200F0AD8073
:10AF300004F1030CAC453DD253F82C70013700F0FE
:10AF4000A28004F1040CAC4534D253F82C700137C4
:10AF500000F0998004F1050CAC452BD253F82C700D
:10AF6000013700F0908004F1060CAC4522D253F872
:10AF70002C70013700F0878004F1070CAC4519D222
:10AF800053F82C7001377ED004F1080CAC4511D277
:10AF900053F82C70013776D004F1090CAC4509D276
:10AFA00053F82C7001376ED00A34AC4202D2DC6AFE
:10AFB000013409D00420F0BD1D68013567D001249B
:10AFC0000825A2E70820F0BD0B241F1865B243F83E
:10AFD00024E087F83050002E51D08A78540714D4DA
:10AFE000D6073BD44C784FF0A04600F5E072A400A1
:10AFF00046F82240294EC40800F0070C375D0122B4
:10B0000002FA0CF23A4332558A780C7812F00202B6
:10B0100009D1083D2B44104693F8502042EA84148D
:10B0200083F85040F0BDAB0003F1804303F5C0430B
:10B030000202D3F8101521F4473121F44071C3F80E
:10B0400010152404D3F8101504F4403402F4F85217
:10B0500022430A43C3F810250020F0BD820002F10C
:10B06000A042D2F8004724F00204C2F80047C1E72A
:10B07000082684F83060C3F820E0354634461C4486
:10B0800084F84800A9E764469FE73C469DE7002511
:10B090001A6084F83050A0E7AC3800200039002056
:10B0A00070B42E4D2E1883B096F93030072B1CDD6E
:10B0B0002B4493F848309B09032B41D0012B14BF3C
:10B0C0004FF440314FF40031800000F1A040D0F83F
:10B0D000002722F44032C0F80027D0F800370B4395
:10B0E000C0F8003703B070BC7047DAB2072AF9D84D
:10B0F000980000F1804000F5C04003F14002D0F814
:10B100001045920092B244F0010402F18042C0F86E
:10B11000104502F5C04200200190019C10600029FA
:10B12000E0D096F9302055F82220002ADAD001220A
:10B130000B4902FA03F3C1F8043303B070BC704743
:10B140004FF0A043D3F81035C34013F0010F0CBFEC
:10B150004FF400314FF44031B6E700BFAC38002067
:10B1600000600040164B034493F93030072B18DC85
:10B17000DAB2072A14D810B49A0002F1804202F51C
:10B18000C042104CD2F81005012120F0010001FA54
:10B1900003F3C2F81005C4F808335DF8044B704798
:10B1A0007047800000F1A040D0F8003723F440330E
:10B1B000C0F80037D0F80037C0F80037704700BF3C
:10B1C000AC380020006000402DE9F04186B000233B
:10B1D000A14A01931668012E00F054811E469F4B30
:10B1E0001A68012A00F05D819D4B1A68012A00F05F
:10B1F0006A819C4B1A68012A00F077819A4B1A6881
:10B20000012A00F08481994B1A68012A00F091818B
:10B21000974B1A68012A00F09E81964B1A68012A02
:10B220000CD0954B1B68012B00F0A58116F0FF0F89
:10B2300015D1002E30DB06B0BDE8F0818F4AD2F880
:10B2400004231706EDD500221A601A6804926033B1
:10B25000049A1B68012B46F0800600F08C81884F11
:10B2600000240125A30003F18043354203F5C043C8
:10B270004FEA45050BD0D3F8100557F82420D3F832
:10B280001015C0F30420C1F3014102B1904701340D
:10B29000082CE7D1002ECEDA00224FF0FF33CDE9A3
:10B2A0000223774C012602AF94F950305D1C2CD05C
:10B2B000DBB223F0C00006AA4FEAD00C02EB0C0E62
:10B2C00003F007021EF80C1C06FA02F211421CD011
:10B2D0002518990995F9303054F82330002B00F0E7
:10B2E0009881032900F098814FEA800C0CF1A04C62
:10B2F0001EF8145CDCF800E71540CEF3014E40F078
:10B300005C81BEF1030F00F0DE81002594F951301D
:10B31000581C2DD0DBB223F0C00006AA4FEAD0089B
:10B3200002EB080E03F007011EF80C2C06FA01FCD4
:10B3300012EA0C0F1CD02218990992F9303054F8F7
:10B340002330002B00F05B81032900F05B81820039
:10B3500002F1A0421EF8148CD2F800E718EA0C0F94
:10B36000CEF3014E40F03681BEF1030F00F0A6810E
:10B3700094F95230591C2DD0DBB223F0C00006AA3C
:10B380004FEAD00802EB080E03F007011EF80C2C60
:10B3900006FA01FC12EA0C0F1CD02218990992F946
:10B3A000303054F82330002B00F03C81032900F0AA
:10B3B0003C81820002F1A0421EF8148CD2F800E712
:10B3C00018EA0C0FCEF3014E40F0E380BEF1030FFC
:10B3D00000F06E8194F953305A1C2DD0DBB223F06B
:10B3E000C00006AA4FEAD00802EB080E03F00701DE
:10B3F0001EF80C2C06FA01FC12EA0C0F1CD02218C5
:10B40000990992F9303054F82330002B00F0ED8088
:10B41000032900F0ED80820002F1A0421EF8148C96
:10B42000D2F800E718EA0C0FCEF3014E40F0BC80D2
:10B43000BEF1030F00F00081002D3FF4FCAE4FF091
:10B44000A043019AD3F8103593423FF4F4AE029A28
:10B450000193039228E700BF0061004004610040AF
:10B46000086100400C610040106100401461004020
:10B47000186100401C6100407C6100400060004099
:10B48000AC3800209A49D1F8041311F0010170D0B2
:10B49000136013680493049B964B1A68012A7FF487
:10B4A000A3AE934AD2F8042397077FF59DAE0022FE
:10B4B0001A601B680493049B8F4B1A68012A46F09C
:10B4C00002067FF496AE8A4AD2F8042355077FF528
:10B4D00090AE00221A601B680493049B874B1A6885
:10B4E000012A46F004067FF489AE814AD2F804238B
:10B4F00014077FF583AE00221A601B680493049B37
:10B500007F4B1A68012A46F008067FF47CAE784A21
:10B51000D2F80423D0067FF576AE00221A601B68AD
:10B520000493049B774B1A68012A46F010067FF4B7
:10B530006FAE6F4AD2F8042391067FF569AE002200
:10B540001A601B680493049B6F4B1A68012A46F02B
:10B5500020067FF462AE664AD2F8042352067FF5D5
:10B560005CAE00221A601B680493049B46F0400600
:10B5700053E60E4633E6654B00221A601B680593BE
:10B580004FF0A043059AD3F81035019346F00046DA
:10B590004CE6BEF1020F7FF41DAF032963D0002BF0
:10B5A0003FF418AF984715E7BEF1020F7FF444AFA0
:10B5B000032969D0002B54D13EE7BEF1020F7FF47E
:10B5C000A4AE032900F091800025002B3FF49EAE2D
:10B5D00098479BE6BEF1020F7FF4CAAE032956D00E
:10B5E000002B3FF4C5AE9847C2E603297FF424AF91
:10B5F00017F8082042EA0C0207F808200BE7032995
:10B600007FF4B6AE17F8082042EA0C0207F80820CB
:10B610009DE603297FF479AE17F80C50154307F81F
:10B620000C5061E603297FF4D5AE17F8082042EAF2
:10B630000C0207F80820BCE60329BBD14FF4003EFA
:10B64000D2F800C72CF4403CC2F800C7D2F800C7BB
:10B6500001354CEA0E0CEDB2C2F800C7002B3FF4E6
:10B66000EEAE9847E8E64FF4403ED2F800C72CF41F
:10B67000403CC2F800C7D2F800C701354CEA0E0CB6
:10B68000EDB2C2F800C78AE74FF4403ED8E74FF466
:10B69000403ED2F800C72CF4403CC2F800C7D2F8B4
:10B6A00000C701354CEA0E0CEDB2C2F800C797E7AF
:10B6B00003297FF474AF4FF4003ED6E703298FD1FE
:10B6C0004FF4003EE5E703297FF47FAF4FF40035E8
:10B6D000DCF8002722F44032CCF80027DCF8002701
:10B6E0002A43CCF8002701256FE74FF44035EFE7F8
:10B6F0000060004004610040086100400C610040AF
:10B700001061004014610040186100407C610040FD
:10B71000014B1B68184700BF08390020104B9842A6
:10B7200001D00020704730B583B002A8002300F894
:10B73000013D0D46FCF77CF90A4B1C7934B19DF8AC
:10B740000700FCF79BF9112003B030BD01229DF8E2
:10B7500007001D601A71FCF791F92046F4E700BF5D
:10B760000020004008390020034B984203D1034BCE
:10B7700000221A601A71704700200040083900202A
:10B7800030B56C4AD2F8043399058BB066D5D2F83F
:10B790002431002B62D00023C2F82431D2F82431A6
:10B7A00003934FF40171644B0398C2F8081393F8A4
:10B7B000291009B9012151605E4902228DF8182033
:10B7C000D1F88024C1F880249869D96809920022B0
:10B7D000CDE90710C3E90622D3E9001406A8A04763
:10B7E000544AD2F81C31BBB1534B186A596988428C
:10B7F00069D350480022C0F81C21D0F81C010190E8
:10B80000019849B198688DF8182008915A610790FD
:10B81000D3E9001206A89047464AD2F84431DBB17A
:10B820000021454BC2F84411D2F8440193F8291085
:10B830000090009809B1012111609A6962B100225B
:10B84000586AD9689A610122CDE907108DF818204D
:10B8500006A8D3E9001290470BB030BD354AD2F8A4
:10B8600004335B07BCD5D2F80831002BB8D0324B7B
:10B87000996900293CD00021C2F80811D2F80811BA
:10B8800004910499D868596AD2F8182542545A6A22
:10B89000996901325A625A6A8A42A1D1DA691968F1
:10B8A000002A2ED0D8685D6A1C699A610790002230
:10B8B0000120DC60DA615A628DF8180008955B6837
:10B8C00006A898478CE793F8280000F0FF040028AA
:10B8D0008FD1C2F81C41D2F81C11029102999C68C8
:10B8E000186A196A205C01311962C2F81C0593E7D5
:10B8F000C2F80811D2F8080105900598D2F8182569
:10B90000C9E793F8292012B90A4A01205060094A70
:10B910004FF40170C2F80803586ADA6808900024EE
:10B92000012007928DF818005A689C6106A890477C
:10B9300056E700BF00200040103900202DE9F041FB
:10B940005E4F06792C2505FB067582B095F82A30E6
:10B95000002B40F087800D46044659490068904608
:10B96000FFF7DCFE002879D12B68591C0CD001228E
:10B970004FF0A04102FA03F3C1F808352B6803F534
:10B98000E073032241F823206B685A1C06D003F5AC
:10B99000E0734FF0A042002142F823102368AA6907
:10B9A000C3F82425297D6B7D22680B43C2F86C35D2
:10B9B000D5E900122368C3F81425C3F80C152B7DB4
:10B9C000012B53D02C2303FB06F3FA18C2F8048092
:10B9D0002A69FA50B8F1000F2DD022682B7F394D1B
:10B9E0000021C2F81C11D2F81C2100922268DDF857
:10B9F00000C0C2F84411D2F84411226801910199A3
:10BA0000C2F804532168090B4AB25B01002ADBB279
:10BA10004EDB02F1604202F5614282F80033236896
:10BA2000294D1B0B5AB2520903F01F03012101FAE1
:10BA300003F345F822302C23246803FB067300220D
:10BA400004250121C4F8005583F82A10C3E9062211
:10BA500083F829205A6102B0BDE8F081112002B0BC
:10BA6000BDE8F081082002B0BDE8F081AB68591C48
:10BA700006D003F5E0734FF0A042002142F82310F6
:10BA8000EB685A1C0DD001224FF0A04102FA03F3DB
:10BA9000C1F80835EB6803F5E073032241F8232071
:10BAA000EB682268A968C2F80835C2F8101589E762
:10BAB000064A01F00F010A441376B0E7103900205E
:10BAC00081B702008000020000E100E0FCEC00E031
:10BAD000F8B52F4D047902682C2303FB0453002191
